{
  "address": "0xb4ab8C36c53E036d3eB222a6af4E1DdF97e6ABe9",
  "abi": [
    {
      "inputs": [
        {
          "internalType": "uint256",
          "name": "_mintValue",
          "type": "uint256"
        }
      ],
      "stateMutability": "nonpayable",
      "type": "constructor"
    },
    {
      "anonymous": false,
      "inputs": [
        {
          "indexed": true,
          "internalType": "address",
          "name": "owner",
          "type": "address"
        },
        {
          "indexed": true,
          "internalType": "address",
          "name": "spender",
          "type": "address"
        },
        {
          "indexed": false,
          "internalType": "uint256",
          "name": "value",
          "type": "uint256"
        }
      ],
      "name": "Approval",
      "type": "event"
    },
    {
      "anonymous": false,
      "inputs": [
        {
          "indexed": false,
          "internalType": "uint256",
          "name": "offerId",
          "type": "uint256"
        },
        {
          "indexed": false,
          "internalType": "address",
          "name": "offerer",
          "type": "address"
        }
      ],
      "name": "OfferCanceled",
      "type": "event"
    },
    {
      "anonymous": false,
      "inputs": [
        {
          "indexed": false,
          "internalType": "uint256",
          "name": "offerId",
          "type": "uint256"
        },
        {
          "indexed": false,
          "internalType": "address",
          "name": "offerer",
          "type": "address"
        },
        {
          "indexed": false,
          "internalType": "uint256",
          "name": "tokens",
          "type": "uint256"
        },
        {
          "indexed": false,
          "internalType": "bytes32[2]",
          "name": "hash",
          "type": "bytes32[2]"
        }
      ],
      "name": "OfferCreated",
      "type": "event"
    },
    {
      "anonymous": false,
      "inputs": [
        {
          "indexed": false,
          "internalType": "uint256",
          "name": "offerId",
          "type": "uint256"
        },
        {
          "indexed": false,
          "internalType": "address",
          "name": "offerer",
          "type": "address"
        },
        {
          "indexed": false,
          "internalType": "address",
          "name": "requester",
          "type": "address"
        },
        {
          "indexed": false,
          "internalType": "uint256",
          "name": "tokens",
          "type": "uint256"
        },
        {
          "indexed": false,
          "internalType": "bytes32[2]",
          "name": "hash",
          "type": "bytes32[2]"
        }
      ],
      "name": "PropositionAccepted",
      "type": "event"
    },
    {
      "anonymous": false,
      "inputs": [
        {
          "indexed": false,
          "internalType": "uint256",
          "name": "offerId",
          "type": "uint256"
        },
        {
          "indexed": false,
          "internalType": "address",
          "name": "proposer",
          "type": "address"
        }
      ],
      "name": "PropositionCanceled",
      "type": "event"
    },
    {
      "anonymous": false,
      "inputs": [
        {
          "indexed": false,
          "internalType": "uint256",
          "name": "offerId",
          "type": "uint256"
        },
        {
          "indexed": false,
          "internalType": "address",
          "name": "proposer",
          "type": "address"
        },
        {
          "indexed": false,
          "internalType": "uint256",
          "name": "tokens",
          "type": "uint256"
        },
        {
          "indexed": false,
          "internalType": "bytes32[2]",
          "name": "hash",
          "type": "bytes32[2]"
        }
      ],
      "name": "PropositionMade",
      "type": "event"
    },
    {
      "anonymous": false,
      "inputs": [
        {
          "indexed": true,
          "internalType": "address",
          "name": "from",
          "type": "address"
        },
        {
          "indexed": true,
          "internalType": "address",
          "name": "to",
          "type": "address"
        },
        {
          "indexed": false,
          "internalType": "uint256",
          "name": "value",
          "type": "uint256"
        }
      ],
      "name": "Transfer",
      "type": "event"
    },
    {
      "inputs": [
        {
          "internalType": "uint256",
          "name": "_offerId",
          "type": "uint256"
        },
        {
          "internalType": "address",
          "name": "proposer",
          "type": "address"
        }
      ],
      "name": "acceptOffer",
      "outputs": [],
      "stateMutability": "payable",
      "type": "function"
    },
    {
      "inputs": [
        {
          "internalType": "address",
          "name": "owner",
          "type": "address"
        },
        {
          "internalType": "address",
          "name": "spender",
          "type": "address"
        }
      ],
      "name": "allowance",
      "outputs": [
        {
          "internalType": "uint256",
          "name": "",
          "type": "uint256"
        }
      ],
      "stateMutability": "view",
      "type": "function"
    },
    {
      "inputs": [
        {
          "internalType": "address",
          "name": "spender",
          "type": "address"
        },
        {
          "internalType": "uint256",
          "name": "amount",
          "type": "uint256"
        }
      ],
      "name": "approve",
      "outputs": [
        {
          "internalType": "bool",
          "name": "",
          "type": "bool"
        }
      ],
      "stateMutability": "nonpayable",
      "type": "function"
    },
    {
      "inputs": [
        {
          "internalType": "address",
          "name": "account",
          "type": "address"
        }
      ],
      "name": "balanceOf",
      "outputs": [
        {
          "internalType": "uint256",
          "name": "",
          "type": "uint256"
        }
      ],
      "stateMutability": "view",
      "type": "function"
    },
    {
      "inputs": [
        {
          "internalType": "uint256",
          "name": "_offerId",
          "type": "uint256"
        }
      ],
      "name": "cancelOffer",
      "outputs": [],
      "stateMutability": "payable",
      "type": "function"
    },
    {
      "inputs": [],
      "name": "cancelProposition",
      "outputs": [],
      "stateMutability": "payable",
      "type": "function"
    },
    {
      "inputs": [
        {
          "internalType": "uint256",
          "name": "_tokens",
          "type": "uint256"
        },
        {
          "internalType": "bytes32[2]",
          "name": "_hash",
          "type": "bytes32[2]"
        }
      ],
      "name": "createOffer",
      "outputs": [],
      "stateMutability": "payable",
      "type": "function"
    },
    {
      "inputs": [],
      "name": "decimals",
      "outputs": [
        {
          "internalType": "uint8",
          "name": "",
          "type": "uint8"
        }
      ],
      "stateMutability": "view",
      "type": "function"
    },
    {
      "inputs": [
        {
          "internalType": "address",
          "name": "spender",
          "type": "address"
        },
        {
          "internalType": "uint256",
          "name": "subtractedValue",
          "type": "uint256"
        }
      ],
      "name": "decreaseAllowance",
      "outputs": [
        {
          "internalType": "bool",
          "name": "",
          "type": "bool"
        }
      ],
      "stateMutability": "nonpayable",
      "type": "function"
    },
    {
      "inputs": [
        {
          "internalType": "uint256",
          "name": "_freeTokens",
          "type": "uint256"
        }
      ],
      "name": "getFreeTokens",
      "outputs": [],
      "stateMutability": "nonpayable",
      "type": "function"
    },
    {
      "inputs": [
        {
          "internalType": "uint256",
          "name": "_offer",
          "type": "uint256"
        }
      ],
      "name": "getOffer",
      "outputs": [
        {
          "internalType": "bytes32[2]",
          "name": "",
          "type": "bytes32[2]"
        },
        {
          "internalType": "uint256",
          "name": "",
          "type": "uint256"
        },
        {
          "internalType": "address",
          "name": "",
          "type": "address"
        },
        {
          "internalType": "bool",
          "name": "",
          "type": "bool"
        }
      ],
      "stateMutability": "view",
      "type": "function"
    },
    {
      "inputs": [
        {
          "internalType": "address",
          "name": "_address",
          "type": "address"
        }
      ],
      "name": "getProposition",
      "outputs": [
        {
          "internalType": "uint256",
          "name": "",
          "type": "uint256"
        }
      ],
      "stateMutability": "view",
      "type": "function"
    },
    {
      "inputs": [
        {
          "internalType": "address",
          "name": "_address",
          "type": "address"
        }
      ],
      "name": "getStackedBalance",
      "outputs": [
        {
          "internalType": "uint256",
          "name": "",
          "type": "uint256"
        }
      ],
      "stateMutability": "view",
      "type": "function"
    },
    {
      "inputs": [
        {
          "internalType": "address",
          "name": "spender",
          "type": "address"
        },
        {
          "internalType": "uint256",
          "name": "addedValue",
          "type": "uint256"
        }
      ],
      "name": "increaseAllowance",
      "outputs": [
        {
          "internalType": "bool",
          "name": "",
          "type": "bool"
        }
      ],
      "stateMutability": "nonpayable",
      "type": "function"
    },
    {
      "inputs": [],
      "name": "latestOfferId",
      "outputs": [
        {
          "internalType": "uint256",
          "name": "",
          "type": "uint256"
        }
      ],
      "stateMutability": "view",
      "type": "function"
    },
    {
      "inputs": [
        {
          "internalType": "uint256",
          "name": "_offerId",
          "type": "uint256"
        }
      ],
      "name": "makeProposition",
      "outputs": [],
      "stateMutability": "payable",
      "type": "function"
    },
    {
      "inputs": [],
      "name": "name",
      "outputs": [
        {
          "internalType": "string",
          "name": "",
          "type": "string"
        }
      ],
      "stateMutability": "view",
      "type": "function"
    },
    {
      "inputs": [],
      "name": "symbol",
      "outputs": [
        {
          "internalType": "string",
          "name": "",
          "type": "string"
        }
      ],
      "stateMutability": "view",
      "type": "function"
    },
    {
      "inputs": [],
      "name": "totalSupply",
      "outputs": [
        {
          "internalType": "uint256",
          "name": "",
          "type": "uint256"
        }
      ],
      "stateMutability": "view",
      "type": "function"
    },
    {
      "inputs": [
        {
          "internalType": "address",
          "name": "to",
          "type": "address"
        },
        {
          "internalType": "uint256",
          "name": "amount",
          "type": "uint256"
        }
      ],
      "name": "transfer",
      "outputs": [
        {
          "internalType": "bool",
          "name": "",
          "type": "bool"
        }
      ],
      "stateMutability": "nonpayable",
      "type": "function"
    },
    {
      "inputs": [
        {
          "internalType": "address",
          "name": "from",
          "type": "address"
        },
        {
          "internalType": "address",
          "name": "to",
          "type": "address"
        },
        {
          "internalType": "uint256",
          "name": "amount",
          "type": "uint256"
        }
      ],
      "name": "transferFrom",
      "outputs": [
        {
          "internalType": "bool",
          "name": "",
          "type": "bool"
        }
      ],
      "stateMutability": "nonpayable",
      "type": "function"
    }
  ],
  "transactionHash": "0xc088f2d93ffeec9b36fa054a976f6007774ce104c2eb3582a5985fd79ce5836b",
  "args": [
    1000
  ],
  "numDeployments": 2,
  "solcInputHash": "b241c2802c03a985341faea6a9b7b155",
  "bytecode": "0x60806040523480156200001157600080fd5b506040516200371f3803806200371f83398181016040528101906200003791906200038b565b6040518060400160405280600381526020017f53656c00000000000000000000000000000000000000000000000000000000008152506040518060400160405280600381526020017f53454c00000000000000000000000000000000000000000000000000000000008152508160039080519060200190620000bb9291906200029b565b508060049080519060200190620000d49291906200029b565b5050506200011333620000ec6200011a60201b60201c565b600a620000fa91906200054d565b836200010791906200059e565b6200012360201b60201c565b5062000772565b60006012905090565b600073ffffffffffffffffffffffffffffffffffffffff168273ffffffffffffffffffffffffffffffffffffffff16141562000196576040517f08c379a00000000000000000000000000000000000000000000000000000000081526004016200018d9062000660565b60405180910390fd5b620001aa600083836200029160201b60201c565b8060026000828254620001be919062000682565b92505081905550806000808473ffffffffffffffffffffffffffffffffffffffff1673ffffffffffffffffffffffffffffffffffffffff168152602001908152602001600020600082825401925050819055508173ffffffffffffffffffffffffffffffffffffffff16600073ffffffffffffffffffffffffffffffffffffffff167fddf252ad1be2c89b69c2b068fc378daa952ba7f163c4a11628f55a4df523b3ef83604051620002719190620006f0565b60405180910390a36200028d600083836200029660201b60201c565b5050565b505050565b505050565b828054620002a9906200073c565b90600052602060002090601f016020900481019282620002cd576000855562000319565b82601f10620002e857805160ff191683800117855562000319565b8280016001018555821562000319579182015b8281111562000318578251825591602001919060010190620002fb565b5b5090506200032891906200032c565b5090565b5b80821115620003475760008160009055506001016200032d565b5090565b600080fd5b6000819050919050565b620003658162000350565b81146200037157600080fd5b50565b60008151905062000385816200035a565b92915050565b600060208284031215620003a457620003a36200034b565b5b6000620003b48482850162000374565b91505092915050565b7f4e487b7100000000000000000000000000000000000000000000000000000000600052601160045260246000fd5b60008160011c9050919050565b6000808291508390505b60018511156200044b57808604811115620004235762000422620003bd565b5b6001851615620004335780820291505b80810290506200044385620003ec565b945062000403565b94509492505050565b60008262000466576001905062000539565b8162000476576000905062000539565b81600181146200048f57600281146200049a57620004d0565b600191505062000539565b60ff841115620004af57620004ae620003bd565b5b8360020a915084821115620004c957620004c8620003bd565b5b5062000539565b5060208310610133831016604e8410600b84101617156200050a5782820a905083811115620005045762000503620003bd565b5b62000539565b620005198484846001620003f9565b92509050818404811115620005335762000532620003bd565b5b81810290505b9392505050565b600060ff82169050919050565b60006200055a8262000350565b9150620005678362000540565b9250620005967fffffffffffffffffffffffffffffffffffffffffffffffffffffffffffffffff848462000454565b905092915050565b6000620005ab8262000350565b9150620005b88362000350565b9250817fffffffffffffffffffffffffffffffffffffffffffffffffffffffffffffffff0483118215151615620005f457620005f3620003bd565b5b828202905092915050565b600082825260208201905092915050565b7f45524332303a206d696e7420746f20746865207a65726f206164647265737300600082015250565b600062000648601f83620005ff565b9150620006558262000610565b602082019050919050565b600060208201905081810360008301526200067b8162000639565b9050919050565b60006200068f8262000350565b91506200069c8362000350565b9250827fffffffffffffffffffffffffffffffffffffffffffffffffffffffffffffffff03821115620006d457620006d3620003bd565b5b828201905092915050565b620006ea8162000350565b82525050565b6000602082019050620007076000830184620006df565b92915050565b7f4e487b7100000000000000000000000000000000000000000000000000000000600052602260045260246000fd5b600060028204905060018216806200075557607f821691505b602082108114156200076c576200076b6200070d565b5b50919050565b612f9d80620007826000396000f3fe60806040526004361061012a5760003560e01c806370a08231116100ab578063a457c2d71161006f578063a457c2d7146103d3578063a9059cbb14610410578063c57e683a1461044d578063ce3a355114610478578063dd62ed3e146104b5578063ef706adf146104f25761012a565b806370a08231146102e95780637b101b1b14610326578063918d407d1461034f57806395960bde1461036b57806395d89b41146103a85761012a565b8063313ce567116100f2578063313ce5671461021b57806339509351146102465780634579268a1461028357806355457ee9146102c3578063604b2b6f146102cd5761012a565b806306fdde031461012f578063095ea7b31461015a5780630c8643511461019757806318160ddd146101b357806323b872dd146101de575b600080fd5b34801561013b57600080fd5b5061014461050e565b6040516101519190611e6a565b60405180910390f35b34801561016657600080fd5b50610181600480360381019061017c9190611f2f565b6105a0565b60405161018e9190611f8a565b60405180910390f35b6101b160048036038101906101ac9190612111565b6105c3565b005b3480156101bf57600080fd5b506101c86107cf565b6040516101d59190612160565b60405180910390f35b3480156101ea57600080fd5b506102056004803603810190610200919061217b565b6107d9565b6040516102129190611f8a565b60405180910390f35b34801561022757600080fd5b50610230610808565b60405161023d91906121ea565b60405180910390f35b34801561025257600080fd5b5061026d60048036038101906102689190611f2f565b610811565b60405161027a9190611f8a565b60405180910390f35b34801561028f57600080fd5b506102aa60048036038101906102a59190612205565b610848565b6040516102ba94939291906122ec565b60405180910390f35b6102cb6108d4565b005b6102e760048036038101906102e29190612205565b6109db565b005b3480156102f557600080fd5b50610310600480360381019061030b9190612331565b610d10565b60405161031d9190612160565b60405180910390f35b34801561033257600080fd5b5061034d60048036038101906103489190612205565b610d58565b005b6103696004803603810190610364919061235e565b610d83565b005b34801561037757600080fd5b50610392600480360381019061038d9190612331565b61118e565b60405161039f9190612160565b60405180910390f35b3480156103b457600080fd5b506103bd6111d7565b6040516103ca9190611e6a565b60405180910390f35b3480156103df57600080fd5b506103fa60048036038101906103f59190611f2f565b611269565b6040516104079190611f8a565b60405180910390f35b34801561041c57600080fd5b5061043760048036038101906104329190611f2f565b6112e0565b6040516104449190611f8a565b60405180910390f35b34801561045957600080fd5b50610462611303565b60405161046f9190612160565b60405180910390f35b34801561048457600080fd5b5061049f600480360381019061049a9190612331565b611309565b6040516104ac9190612160565b60405180910390f35b3480156104c157600080fd5b506104dc60048036038101906104d7919061239e565b611352565b6040516104e99190612160565b60405180910390f35b61050c60048036038101906105079190612205565b6113d9565b005b60606003805461051d9061240d565b80601f01602080910402602001604051908101604052809291908181526020018280546105499061240d565b80156105965780601f1061056b57610100808354040283529160200191610596565b820191906000526020600020905b81548152906001019060200180831161057957829003601f168201915b5050505050905090565b6000806105ab611777565b90506105b881858561177f565b600191505092915050565b60008211610606576040517f08c379a00000000000000000000000000000000000000000000000000000000081526004016105fd9061248b565b60405180910390fd5b61061133308461194a565b60056000815480929190610624906124da565b91905055506040518060a001604052808260006002811061064857610647612523565b5b602002015181526020018260016002811061066657610665612523565b5b602002015181526020018381526020013373ffffffffffffffffffffffffffffffffffffffff1681526020016001151581525060066000600554815260200190815260200160002060008201518160000155602082015181600101556040820151816002015560608201518160030160006101000a81548173ffffffffffffffffffffffffffffffffffffffff021916908373ffffffffffffffffffffffffffffffffffffffff16021790555060808201518160030160146101000a81548160ff02191690831515021790555090505081600860003373ffffffffffffffffffffffffffffffffffffffff1673ffffffffffffffffffffffffffffffffffffffff16815260200190815260200160002060008282546107859190612552565b925050819055507feff97c9761d42f9cc7a3da5c567433bff22b2ca11da24cc9bfef2123588b9f1d6005543384846040516107c394939291906125a8565b60405180910390a15050565b6000600254905090565b6000806107e4611777565b90506107f1858285611bc2565b6107fc85858561194a565b60019150509392505050565b60006012905090565b60008061081c611777565b905061083d81858561082e8589611352565b6108389190612552565b61177f565b600191505092915050565b610850611daf565b600080600080600660008781526020019081526020016000209050604051806040016040528082600001548152602001826001015481525081600201548260030160009054906101000a900473ffffffffffffffffffffffffffffffffffffffff168360030160149054906101000a900460ff169450945094509450509193509193565b6000600760003373ffffffffffffffffffffffffffffffffffffffff1673ffffffffffffffffffffffffffffffffffffffff168152602001908152602001600020549050600081141561095c576040517f08c379a000000000000000000000000000000000000000000000000000000000815260040161095390612639565b60405180910390fd5b600760003373ffffffffffffffffffffffffffffffffffffffff1673ffffffffffffffffffffffffffffffffffffffff168152602001908152602001600020600090557f1298fc5ff44661f44eb6c9b97b499d8afd57fd00b4f3ac2cd518ccab8fea4a7b81336040516109d0929190612659565b60405180910390a150565b806000600660008381526020019081526020016000206040518060a00160405290816000820154815260200160018201548152602001600282015481526020016003820160009054906101000a900473ffffffffffffffffffffffffffffffffffffffff1673ffffffffffffffffffffffffffffffffffffffff1673ffffffffffffffffffffffffffffffffffffffff1681526020016003820160149054906101000a900460ff1615151515815250509050600073ffffffffffffffffffffffffffffffffffffffff16816060015173ffffffffffffffffffffffffffffffffffffffff161415610b01576040517f08c379a0000000000000000000000000000000000000000000000000000000008152600401610af8906126ce565b60405180910390fd5b8060800151610b45576040517f08c379a0000000000000000000000000000000000000000000000000000000008152600401610b3c9061273a565b60405180910390fd5b6000600660008581526020019081526020016000206040518060a00160405290816000820154815260200160018201548152602001600282015481526020016003820160009054906101000a900473ffffffffffffffffffffffffffffffffffffffff1673ffffffffffffffffffffffffffffffffffffffff1673ffffffffffffffffffffffffffffffffffffffff1681526020016003820160149054906101000a900460ff16151515158152505090503373ffffffffffffffffffffffffffffffffffffffff16816060015173ffffffffffffffffffffffffffffffffffffffff161415610c69576040517f08c379a0000000000000000000000000000000000000000000000000000000008152600401610c60906127a6565b60405180910390fd5b83600760003373ffffffffffffffffffffffffffffffffffffffff1673ffffffffffffffffffffffffffffffffffffffff168152602001908152602001600020819055507f1f9d575367d33deb7e583b9f6847a1c0441e217e86e108be9972fa4ee714b733843383604001516040518060400160405280866000015181526020018660200151815250604051610d0294939291906125a8565b60405180910390a150505050565b60008060008373ffffffffffffffffffffffffffffffffffffffff1673ffffffffffffffffffffffffffffffffffffffff168152602001908152602001600020549050919050565b610d8033610d64610808565b600a610d7091906128f9565b83610d7b9190612944565b611c4e565b50565b816000600660008381526020019081526020016000206040518060a00160405290816000820154815260200160018201548152602001600282015481526020016003820160009054906101000a900473ffffffffffffffffffffffffffffffffffffffff1673ffffffffffffffffffffffffffffffffffffffff1673ffffffffffffffffffffffffffffffffffffffff1681526020016003820160149054906101000a900460ff1615151515815250509050600073ffffffffffffffffffffffffffffffffffffffff16816060015173ffffffffffffffffffffffffffffffffffffffff161415610ea9576040517f08c379a0000000000000000000000000000000000000000000000000000000008152600401610ea0906126ce565b60405180910390fd5b8060800151610eed576040517f08c379a0000000000000000000000000000000000000000000000000000000008152600401610ee49061273a565b60405180910390fd5b60006006600086815260200190815260200160002090503373ffffffffffffffffffffffffffffffffffffffff168160030160009054906101000a900473ffffffffffffffffffffffffffffffffffffffff1673ffffffffffffffffffffffffffffffffffffffff1614610f96576040517f08c379a0000000000000000000000000000000000000000000000000000000008152600401610f8d906129ea565b60405180910390fd5b84600760008673ffffffffffffffffffffffffffffffffffffffff1673ffffffffffffffffffffffffffffffffffffffff1681526020019081526020016000205414611017576040517f08c379a000000000000000000000000000000000000000000000000000000000815260040161100e90612a7c565b60405180910390fd5b60008160030160146101000a81548160ff0219169083151502179055507f021023dbf8343eff69d502d7f5d0424ae73de16df1e91b67983fff29991b149f858260030160009054906101000a900473ffffffffffffffffffffffffffffffffffffffff1686846002015460405180604001604052808760000154815260200187600101548152506040516110af959493929190612a9c565b60405180910390a18060020154600860008360030160009054906101000a900473ffffffffffffffffffffffffffffffffffffffff1673ffffffffffffffffffffffffffffffffffffffff1673ffffffffffffffffffffffffffffffffffffffff168152602001908152602001600020600082825461112e9190612aef565b925050819055506111443085836002015461194a565b600760008573ffffffffffffffffffffffffffffffffffffffff1673ffffffffffffffffffffffffffffffffffffffff168152602001908152602001600020600090555050505050565b6000600860008373ffffffffffffffffffffffffffffffffffffffff1673ffffffffffffffffffffffffffffffffffffffff168152602001908152602001600020549050919050565b6060600480546111e69061240d565b80601f01602080910402602001604051908101604052809291908181526020018280546112129061240d565b801561125f5780601f106112345761010080835404028352916020019161125f565b820191906000526020600020905b81548152906001019060200180831161124257829003601f168201915b5050505050905090565b600080611274611777565b905060006112828286611352565b9050838110156112c7576040517f08c379a00000000000000000000000000000000000000000000000000000000081526004016112be90612b95565b60405180910390fd5b6112d4828686840361177f565b60019250505092915050565b6000806112eb611777565b90506112f881858561194a565b600191505092915050565b60055481565b6000600760008373ffffffffffffffffffffffffffffffffffffffff1673ffffffffffffffffffffffffffffffffffffffff168152602001908152602001600020549050919050565b6000600160008473ffffffffffffffffffffffffffffffffffffffff1673ffffffffffffffffffffffffffffffffffffffff16815260200190815260200160002060008373ffffffffffffffffffffffffffffffffffffffff1673ffffffffffffffffffffffffffffffffffffffff16815260200190815260200160002054905092915050565b806000600660008381526020019081526020016000206040518060a00160405290816000820154815260200160018201548152602001600282015481526020016003820160009054906101000a900473ffffffffffffffffffffffffffffffffffffffff1673ffffffffffffffffffffffffffffffffffffffff1673ffffffffffffffffffffffffffffffffffffffff1681526020016003820160149054906101000a900460ff1615151515815250509050600073ffffffffffffffffffffffffffffffffffffffff16816060015173ffffffffffffffffffffffffffffffffffffffff1614156114ff576040517f08c379a00000000000000000000000000000000000000000000000000000000081526004016114f6906126ce565b60405180910390fd5b8060800151611543576040517f08c379a000000000000000000000000000000000000000000000000000000000815260040161153a9061273a565b60405180910390fd5b6000600660008581526020019081526020016000206040518060a00160405290816000820154815260200160018201548152602001600282015481526020016003820160009054906101000a900473ffffffffffffffffffffffffffffffffffffffff1673ffffffffffffffffffffffffffffffffffffffff1673ffffffffffffffffffffffffffffffffffffffff1681526020016003820160149054906101000a900460ff16151515158152505090503373ffffffffffffffffffffffffffffffffffffffff16816060015173ffffffffffffffffffffffffffffffffffffffff1614611666576040517f08c379a000000000000000000000000000000000000000000000000000000000815260040161165d906129ea565b60405180910390fd5b60066000858152602001908152602001600020600080820160009055600182016000905560028201600090556003820160006101000a81549073ffffffffffffffffffffffffffffffffffffffff02191690556003820160146101000a81549060ff021916905550508060400151600860003373ffffffffffffffffffffffffffffffffffffffff1673ffffffffffffffffffffffffffffffffffffffff16815260200190815260200160002060008282546117229190612aef565b925050819055507f9a4dfa8787b349e9b45b60504f991c5c9f9cda8dadabdc8e4a3f4cb8608220a3843360405161175a929190612659565b60405180910390a16117713033836040015161194a565b50505050565b600033905090565b600073ffffffffffffffffffffffffffffffffffffffff168373ffffffffffffffffffffffffffffffffffffffff1614156117ef576040517f08c379a00000000000000000000000000000000000000000000000000000000081526004016117e690612c27565b60405180910390fd5b600073ffffffffffffffffffffffffffffffffffffffff168273ffffffffffffffffffffffffffffffffffffffff16141561185f576040517f08c379a000000000000000000000000000000000000000000000000000000000815260040161185690612cb9565b60405180910390fd5b80600160008573ffffffffffffffffffffffffffffffffffffffff1673ffffffffffffffffffffffffffffffffffffffff16815260200190815260200160002060008473ffffffffffffffffffffffffffffffffffffffff1673ffffffffffffffffffffffffffffffffffffffff168152602001908152602001600020819055508173ffffffffffffffffffffffffffffffffffffffff168373ffffffffffffffffffffffffffffffffffffffff167f8c5be1e5ebec7d5bd14f71427d1e84f3dd0314c0f7b2291e5b200ac8c7c3b9258360405161193d9190612160565b60405180910390a3505050565b600073ffffffffffffffffffffffffffffffffffffffff168373ffffffffffffffffffffffffffffffffffffffff1614156119ba576040517f08c379a00000000000000000000000000000000000000000000000000000000081526004016119b190612d4b565b60405180910390fd5b600073ffffffffffffffffffffffffffffffffffffffff168273ffffffffffffffffffffffffffffffffffffffff161415611a2a576040517f08c379a0000000000000000000000000000000000000000000000000000000008152600401611a2190612ddd565b60405180910390fd5b611a35838383611da5565b60008060008573ffffffffffffffffffffffffffffffffffffffff1673ffffffffffffffffffffffffffffffffffffffff16815260200190815260200160002054905081811015611abb576040517f08c379a0000000000000000000000000000000000000000000000000000000008152600401611ab290612e6f565b60405180910390fd5b8181036000808673ffffffffffffffffffffffffffffffffffffffff1673ffffffffffffffffffffffffffffffffffffffff16815260200190815260200160002081905550816000808573ffffffffffffffffffffffffffffffffffffffff1673ffffffffffffffffffffffffffffffffffffffff168152602001908152602001600020600082825401925050819055508273ffffffffffffffffffffffffffffffffffffffff168473ffffffffffffffffffffffffffffffffffffffff167fddf252ad1be2c89b69c2b068fc378daa952ba7f163c4a11628f55a4df523b3ef84604051611ba99190612160565b60405180910390a3611bbc848484611daa565b50505050565b6000611bce8484611352565b90507fffffffffffffffffffffffffffffffffffffffffffffffffffffffffffffffff8114611c485781811015611c3a576040517f08c379a0000000000000000000000000000000000000000000000000000000008152600401611c3190612edb565b60405180910390fd5b611c47848484840361177f565b5b50505050565b600073ffffffffffffffffffffffffffffffffffffffff168273ffffffffffffffffffffffffffffffffffffffff161415611cbe576040517f08c379a0000000000000000000000000000000000000000000000000000000008152600401611cb590612f47565b60405180910390fd5b611cca60008383611da5565b8060026000828254611cdc9190612552565b92505081905550806000808473ffffffffffffffffffffffffffffffffffffffff1673ffffffffffffffffffffffffffffffffffffffff168152602001908152602001600020600082825401925050819055508173ffffffffffffffffffffffffffffffffffffffff16600073ffffffffffffffffffffffffffffffffffffffff167fddf252ad1be2c89b69c2b068fc378daa952ba7f163c4a11628f55a4df523b3ef83604051611d8d9190612160565b60405180910390a3611da160008383611daa565b5050565b505050565b505050565b6040518060400160405280600290602082028036833780820191505090505090565b600081519050919050565b600082825260208201905092915050565b60005b83811015611e0b578082015181840152602081019050611df0565b83811115611e1a576000848401525b50505050565b6000601f19601f8301169050919050565b6000611e3c82611dd1565b611e468185611ddc565b9350611e56818560208601611ded565b611e5f81611e20565b840191505092915050565b60006020820190508181036000830152611e848184611e31565b905092915050565b6000604051905090565b600080fd5b600073ffffffffffffffffffffffffffffffffffffffff82169050919050565b6000611ec682611e9b565b9050919050565b611ed681611ebb565b8114611ee157600080fd5b50565b600081359050611ef381611ecd565b92915050565b6000819050919050565b611f0c81611ef9565b8114611f1757600080fd5b50565b600081359050611f2981611f03565b92915050565b60008060408385031215611f4657611f45611e96565b5b6000611f5485828601611ee4565b9250506020611f6585828601611f1a565b9150509250929050565b60008115159050919050565b611f8481611f6f565b82525050565b6000602082019050611f9f6000830184611f7b565b92915050565b600080fd5b7f4e487b7100000000000000000000000000000000000000000000000000000000600052604160045260246000fd5b611fe282611e20565b810181811067ffffffffffffffff8211171561200157612000611faa565b5b80604052505050565b6000612014611e8c565b90506120208282611fd9565b919050565b600067ffffffffffffffff8211156120405761203f611faa565b5b602082029050919050565b600080fd5b6000819050919050565b61206381612050565b811461206e57600080fd5b50565b6000813590506120808161205a565b92915050565b600061209961209484612025565b61200a565b905080602084028301858111156120b3576120b261204b565b5b835b818110156120dc57806120c88882612071565b8452602084019350506020810190506120b5565b5050509392505050565b600082601f8301126120fb576120fa611fa5565b5b6002612108848285612086565b91505092915050565b6000806060838503121561212857612127611e96565b5b600061213685828601611f1a565b9250506020612147858286016120e6565b9150509250929050565b61215a81611ef9565b82525050565b60006020820190506121756000830184612151565b92915050565b60008060006060848603121561219457612193611e96565b5b60006121a286828701611ee4565b93505060206121b386828701611ee4565b92505060406121c486828701611f1a565b9150509250925092565b600060ff82169050919050565b6121e4816121ce565b82525050565b60006020820190506121ff60008301846121db565b92915050565b60006020828403121561221b5761221a611e96565b5b600061222984828501611f1a565b91505092915050565b600060029050919050565b600081905092915050565b6000819050919050565b61225b81612050565b82525050565b600061226d8383612252565b60208301905092915050565b6000602082019050919050565b61228f81612232565b612299818461223d565b92506122a482612248565b8060005b838110156122d55781516122bc8782612261565b96506122c783612279565b9250506001810190506122a8565b505050505050565b6122e681611ebb565b82525050565b600060a0820190506123016000830187612286565b61230e6040830186612151565b61231b60608301856122dd565b6123286080830184611f7b565b95945050505050565b60006020828403121561234757612346611e96565b5b600061235584828501611ee4565b91505092915050565b6000806040838503121561237557612374611e96565b5b600061238385828601611f1a565b925050602061239485828601611ee4565b9150509250929050565b600080604083850312156123b5576123b4611e96565b5b60006123c385828601611ee4565b92505060206123d485828601611ee4565b9150509250929050565b7f4e487b7100000000000000000000000000000000000000000000000000000000600052602260045260246000fd5b6000600282049050600182168061242557607f821691505b60208210811415612439576124386123de565b5b50919050565b7f596f75206d757374206f66666572206174206c65617374203120746f6b656e00600082015250565b6000612475601f83611ddc565b91506124808261243f565b602082019050919050565b600060208201905081810360008301526124a481612468565b9050919050565b7f4e487b7100000000000000000000000000000000000000000000000000000000600052601160045260246000fd5b60006124e582611ef9565b91507fffffffffffffffffffffffffffffffffffffffffffffffffffffffffffffffff821415612518576125176124ab565b5b600182019050919050565b7f4e487b7100000000000000000000000000000000000000000000000000000000600052603260045260246000fd5b600061255d82611ef9565b915061256883611ef9565b9250827fffffffffffffffffffffffffffffffffffffffffffffffffffffffffffffffff0382111561259d5761259c6124ab565b5b828201905092915050565b600060a0820190506125bd6000830187612151565b6125ca60208301866122dd565b6125d76040830185612151565b6125e46060830184612286565b95945050505050565b7f596f7520617265206e6f7420612070726f706f73657200000000000000000000600082015250565b6000612623601683611ddc565b915061262e826125ed565b602082019050919050565b6000602082019050818103600083015261265281612616565b9050919050565b600060408201905061266e6000830185612151565b61267b60208301846122dd565b9392505050565b7f4f6666657220646f6573206e6f74206578697374000000000000000000000000600082015250565b60006126b8601483611ddc565b91506126c382612682565b602082019050919050565b600060208201905081810360008301526126e7816126ab565b9050919050565b7f4f66666572206973206e6f742061637469766500000000000000000000000000600082015250565b6000612724601383611ddc565b915061272f826126ee565b602082019050919050565b6000602082019050818103600083015261275381612717565b9050919050565b7f596f752063616e2774207265717565737420796f7572206f776e206f66666572600082015250565b6000612790602083611ddc565b915061279b8261275a565b602082019050919050565b600060208201905081810360008301526127bf81612783565b9050919050565b60008160011c9050919050565b6000808291508390505b600185111561281d578086048111156127f9576127f86124ab565b5b60018516156128085780820291505b8081029050612816856127c6565b94506127dd565b94509492505050565b60008261283657600190506128f2565b8161284457600090506128f2565b816001811461285a576002811461286457612893565b60019150506128f2565b60ff841115612876576128756124ab565b5b8360020a91508482111561288d5761288c6124ab565b5b506128f2565b5060208310610133831016604e8410600b84101617156128c85782820a9050838111156128c3576128c26124ab565b5b6128f2565b6128d584848460016127d3565b925090508184048111156128ec576128eb6124ab565b5b81810290505b9392505050565b600061290482611ef9565b915061290f836121ce565b925061293c7fffffffffffffffffffffffffffffffffffffffffffffffffffffffffffffffff8484612826565b905092915050565b600061294f82611ef9565b915061295a83611ef9565b9250817fffffffffffffffffffffffffffffffffffffffffffffffffffffffffffffffff0483118215151615612993576129926124ab565b5b828202905092915050565b7f596f7520617265206e6f7420746865206f666665726572000000000000000000600082015250565b60006129d4601783611ddc565b91506129df8261299e565b602082019050919050565b60006020820190508181036000830152612a03816129c7565b9050919050565b7f5468652070726f76696465642061646472657373206973206e6f74206120707260008201527f6f706f7365720000000000000000000000000000000000000000000000000000602082015250565b6000612a66602683611ddc565b9150612a7182612a0a565b604082019050919050565b60006020820190508181036000830152612a9581612a59565b9050919050565b600060c082019050612ab16000830188612151565b612abe60208301876122dd565b612acb60408301866122dd565b612ad86060830185612151565b612ae56080830184612286565b9695505050505050565b6000612afa82611ef9565b9150612b0583611ef9565b925082821015612b1857612b176124ab565b5b828203905092915050565b7f45524332303a2064656372656173656420616c6c6f77616e63652062656c6f7760008201527f207a65726f000000000000000000000000000000000000000000000000000000602082015250565b6000612b7f602583611ddc565b9150612b8a82612b23565b604082019050919050565b60006020820190508181036000830152612bae81612b72565b9050919050565b7f45524332303a20617070726f76652066726f6d20746865207a65726f2061646460008201527f7265737300000000000000000000000000000000000000000000000000000000602082015250565b6000612c11602483611ddc565b9150612c1c82612bb5565b604082019050919050565b60006020820190508181036000830152612c4081612c04565b9050919050565b7f45524332303a20617070726f766520746f20746865207a65726f20616464726560008201527f7373000000000000000000000000000000000000000000000000000000000000602082015250565b6000612ca3602283611ddc565b9150612cae82612c47565b604082019050919050565b60006020820190508181036000830152612cd281612c96565b9050919050565b7f45524332303a207472616e736665722066726f6d20746865207a65726f20616460008201527f6472657373000000000000000000000000000000000000000000000000000000602082015250565b6000612d35602583611ddc565b9150612d4082612cd9565b604082019050919050565b60006020820190508181036000830152612d6481612d28565b9050919050565b7f45524332303a207472616e7366657220746f20746865207a65726f206164647260008201527f6573730000000000000000000000000000000000000000000000000000000000602082015250565b6000612dc7602383611ddc565b9150612dd282612d6b565b604082019050919050565b60006020820190508181036000830152612df681612dba565b9050919050565b7f45524332303a207472616e7366657220616d6f756e742065786365656473206260008201527f616c616e63650000000000000000000000000000000000000000000000000000602082015250565b6000612e59602683611ddc565b9150612e6482612dfd565b604082019050919050565b60006020820190508181036000830152612e8881612e4c565b9050919050565b7f45524332303a20696e73756666696369656e7420616c6c6f77616e6365000000600082015250565b6000612ec5601d83611ddc565b9150612ed082612e8f565b602082019050919050565b60006020820190508181036000830152612ef481612eb8565b9050919050565b7f45524332303a206d696e7420746f20746865207a65726f206164647265737300600082015250565b6000612f31601f83611ddc565b9150612f3c82612efb565b602082019050919050565b60006020820190508181036000830152612f6081612f24565b905091905056fea264697066735822122073406ad52dd5d12b2fc853e2180a1a56528e3d5f8dde1bdc454d6d386d09c1c264736f6c63430008090033",
  "devdoc": {
    "kind": "dev",
    "methods": {
      "allowance(address,address)": {
        "details": "See {IERC20-allowance}."
      },
      "approve(address,uint256)": {
        "details": "See {IERC20-approve}. NOTE: If `amount` is the maximum `uint256`, the allowance is not updated on `transferFrom`. This is semantically equivalent to an infinite approval. Requirements: - `spender` cannot be the zero address."
      },
      "balanceOf(address)": {
        "details": "See {IERC20-balanceOf}."
      },
      "decimals()": {
        "details": "Returns the number of decimals used to get its user representation. For example, if `decimals` equals `2`, a balance of `505` tokens should be displayed to a user as `5.05` (`505 / 10 ** 2`). Tokens usually opt for a value of 18, imitating the relationship between Ether and Wei. This is the value {ERC20} uses, unless this function is overridden; NOTE: This information is only used for _display_ purposes: it in no way affects any of the arithmetic of the contract, including {IERC20-balanceOf} and {IERC20-transfer}."
      },
      "decreaseAllowance(address,uint256)": {
        "details": "Atomically decreases the allowance granted to `spender` by the caller. This is an alternative to {approve} that can be used as a mitigation for problems described in {IERC20-approve}. Emits an {Approval} event indicating the updated allowance. Requirements: - `spender` cannot be the zero address. - `spender` must have allowance for the caller of at least `subtractedValue`."
      },
      "increaseAllowance(address,uint256)": {
        "details": "Atomically increases the allowance granted to `spender` by the caller. This is an alternative to {approve} that can be used as a mitigation for problems described in {IERC20-approve}. Emits an {Approval} event indicating the updated allowance. Requirements: - `spender` cannot be the zero address."
      },
      "name()": {
        "details": "Returns the name of the token."
      },
      "symbol()": {
        "details": "Returns the symbol of the token, usually a shorter version of the name."
      },
      "totalSupply()": {
        "details": "See {IERC20-totalSupply}."
      },
      "transfer(address,uint256)": {
        "details": "See {IERC20-transfer}. Requirements: - `to` cannot be the zero address. - the caller must have a balance of at least `amount`."
      },
      "transferFrom(address,address,uint256)": {
        "details": "See {IERC20-transferFrom}. Emits an {Approval} event indicating the updated allowance. This is not required by the EIP. See the note at the beginning of {ERC20}. NOTE: Does not update the allowance if the current allowance is the maximum `uint256`. Requirements: - `from` and `to` cannot be the zero address. - `from` must have a balance of at least `amount`. - the caller must have allowance for ``from``'s tokens of at least `amount`."
      }
    },
    "version": 1
  },
  "userdoc": {
    "kind": "user",
    "methods": {},
    "version": 1
  },
  "storageLayout": {
    "storage": [
      {
        "astId": 15,
        "contract": "contracts/Sel.sol:Sel",
        "label": "_balances",
        "offset": 0,
        "slot": "0",
        "type": "t_mapping(t_address,t_uint256)"
      },
      {
        "astId": 21,
        "contract": "contracts/Sel.sol:Sel",
        "label": "_allowances",
        "offset": 0,
        "slot": "1",
        "type": "t_mapping(t_address,t_mapping(t_address,t_uint256))"
      },
      {
        "astId": 23,
        "contract": "contracts/Sel.sol:Sel",
        "label": "_totalSupply",
        "offset": 0,
        "slot": "2",
        "type": "t_uint256"
      },
      {
        "astId": 25,
        "contract": "contracts/Sel.sol:Sel",
        "label": "_name",
        "offset": 0,
        "slot": "3",
        "type": "t_string_storage"
      },
      {
        "astId": 27,
        "contract": "contracts/Sel.sol:Sel",
        "label": "_symbol",
        "offset": 0,
        "slot": "4",
        "type": "t_string_storage"
      },
      {
        "astId": 751,
        "contract": "contracts/Sel.sol:Sel",
        "label": "latestOfferId",
        "offset": 0,
        "slot": "5",
        "type": "t_uint256"
      },
      {
        "astId": 756,
        "contract": "contracts/Sel.sol:Sel",
        "label": "offers",
        "offset": 0,
        "slot": "6",
        "type": "t_mapping(t_uint256,t_struct(Offer)726_storage)"
      },
      {
        "astId": 760,
        "contract": "contracts/Sel.sol:Sel",
        "label": "proposers",
        "offset": 0,
        "slot": "7",
        "type": "t_mapping(t_address,t_uint256)"
      },
      {
        "astId": 764,
        "contract": "contracts/Sel.sol:Sel",
        "label": "_stack",
        "offset": 0,
        "slot": "8",
        "type": "t_mapping(t_address,t_uint256)"
      }
    ],
    "types": {
      "t_address": {
        "encoding": "inplace",
        "label": "address",
        "numberOfBytes": "20"
      },
      "t_bool": {
        "encoding": "inplace",
        "label": "bool",
        "numberOfBytes": "1"
      },
      "t_bytes32": {
        "encoding": "inplace",
        "label": "bytes32",
        "numberOfBytes": "32"
      },
      "t_mapping(t_address,t_mapping(t_address,t_uint256))": {
        "encoding": "mapping",
        "key": "t_address",
        "label": "mapping(address => mapping(address => uint256))",
        "numberOfBytes": "32",
        "value": "t_mapping(t_address,t_uint256)"
      },
      "t_mapping(t_address,t_uint256)": {
        "encoding": "mapping",
        "key": "t_address",
        "label": "mapping(address => uint256)",
        "numberOfBytes": "32",
        "value": "t_uint256"
      },
      "t_mapping(t_uint256,t_struct(Offer)726_storage)": {
        "encoding": "mapping",
        "key": "t_uint256",
        "label": "mapping(uint256 => struct Offer)",
        "numberOfBytes": "32",
        "value": "t_struct(Offer)726_storage"
      },
      "t_string_storage": {
        "encoding": "bytes",
        "label": "string",
        "numberOfBytes": "32"
      },
      "t_struct(Offer)726_storage": {
        "encoding": "inplace",
        "label": "struct Offer",
        "members": [
          {
            "astId": 717,
            "contract": "contracts/Sel.sol:Sel",
            "label": "hash1",
            "offset": 0,
            "slot": "0",
            "type": "t_bytes32"
          },
          {
            "astId": 719,
            "contract": "contracts/Sel.sol:Sel",
            "label": "hash2",
            "offset": 0,
            "slot": "1",
            "type": "t_bytes32"
          },
          {
            "astId": 721,
            "contract": "contracts/Sel.sol:Sel",
            "label": "value",
            "offset": 0,
            "slot": "2",
            "type": "t_uint256"
          },
          {
            "astId": 723,
            "contract": "contracts/Sel.sol:Sel",
            "label": "offerer",
            "offset": 0,
            "slot": "3",
            "type": "t_address"
          },
          {
            "astId": 725,
            "contract": "contracts/Sel.sol:Sel",
            "label": "active",
            "offset": 20,
            "slot": "3",
            "type": "t_bool"
          }
        ],
        "numberOfBytes": "128"
      },
      "t_uint256": {
        "encoding": "inplace",
        "label": "uint256",
        "numberOfBytes": "32"
      }
    }
  }
}