{
  "address": "0x9A09Cf44993b162F1ef68321d2908f7A5A2A9c21",
  "abi": [
    {
      "inputs": [
        {
          "internalType": "uint256",
          "name": "_mintValue",
          "type": "uint256"
        }
      ],
      "stateMutability": "nonpayable",
      "type": "constructor"
    },
    {
      "anonymous": false,
      "inputs": [
        {
          "indexed": true,
          "internalType": "address",
          "name": "owner",
          "type": "address"
        },
        {
          "indexed": true,
          "internalType": "address",
          "name": "spender",
          "type": "address"
        },
        {
          "indexed": false,
          "internalType": "uint256",
          "name": "value",
          "type": "uint256"
        }
      ],
      "name": "Approval",
      "type": "event"
    },
    {
      "anonymous": false,
      "inputs": [
        {
          "indexed": false,
          "internalType": "uint256",
          "name": "offerId",
          "type": "uint256"
        },
        {
          "indexed": false,
          "internalType": "address",
          "name": "offerer",
          "type": "address"
        }
      ],
      "name": "OfferCanceled",
      "type": "event"
    },
    {
      "anonymous": false,
      "inputs": [
        {
          "indexed": false,
          "internalType": "uint256",
          "name": "offerId",
          "type": "uint256"
        },
        {
          "indexed": false,
          "internalType": "address",
          "name": "offerer",
          "type": "address"
        },
        {
          "indexed": false,
          "internalType": "uint256",
          "name": "tokens",
          "type": "uint256"
        },
        {
          "indexed": false,
          "internalType": "bytes32[2]",
          "name": "hash",
          "type": "bytes32[2]"
        }
      ],
      "name": "OfferCreated",
      "type": "event"
    },
    {
      "anonymous": false,
      "inputs": [
        {
          "indexed": false,
          "internalType": "uint256",
          "name": "offerId",
          "type": "uint256"
        },
        {
          "indexed": false,
          "internalType": "address",
          "name": "offerer",
          "type": "address"
        },
        {
          "indexed": false,
          "internalType": "address",
          "name": "requester",
          "type": "address"
        },
        {
          "indexed": false,
          "internalType": "uint256",
          "name": "tokens",
          "type": "uint256"
        },
        {
          "indexed": false,
          "internalType": "bytes32[2]",
          "name": "hash",
          "type": "bytes32[2]"
        }
      ],
      "name": "PropositionAccepted",
      "type": "event"
    },
    {
      "anonymous": false,
      "inputs": [
        {
          "indexed": false,
          "internalType": "uint256",
          "name": "offerId",
          "type": "uint256"
        },
        {
          "indexed": false,
          "internalType": "address",
          "name": "proposer",
          "type": "address"
        }
      ],
      "name": "PropositionCanceled",
      "type": "event"
    },
    {
      "anonymous": false,
      "inputs": [
        {
          "indexed": false,
          "internalType": "uint256",
          "name": "offerId",
          "type": "uint256"
        },
        {
          "indexed": false,
          "internalType": "address",
          "name": "proposer",
          "type": "address"
        },
        {
          "indexed": false,
          "internalType": "uint256",
          "name": "tokens",
          "type": "uint256"
        },
        {
          "indexed": false,
          "internalType": "bytes32[2]",
          "name": "hash",
          "type": "bytes32[2]"
        }
      ],
      "name": "PropositionMade",
      "type": "event"
    },
    {
      "anonymous": false,
      "inputs": [
        {
          "indexed": true,
          "internalType": "address",
          "name": "from",
          "type": "address"
        },
        {
          "indexed": true,
          "internalType": "address",
          "name": "to",
          "type": "address"
        },
        {
          "indexed": false,
          "internalType": "uint256",
          "name": "value",
          "type": "uint256"
        }
      ],
      "name": "Transfer",
      "type": "event"
    },
    {
      "inputs": [
        {
          "internalType": "uint256",
          "name": "_offerId",
          "type": "uint256"
        },
        {
          "internalType": "address",
          "name": "proposer",
          "type": "address"
        }
      ],
      "name": "acceptOffer",
      "outputs": [],
      "stateMutability": "payable",
      "type": "function"
    },
    {
      "inputs": [
        {
          "internalType": "address",
          "name": "owner",
          "type": "address"
        },
        {
          "internalType": "address",
          "name": "spender",
          "type": "address"
        }
      ],
      "name": "allowance",
      "outputs": [
        {
          "internalType": "uint256",
          "name": "",
          "type": "uint256"
        }
      ],
      "stateMutability": "view",
      "type": "function"
    },
    {
      "inputs": [
        {
          "internalType": "address",
          "name": "spender",
          "type": "address"
        },
        {
          "internalType": "uint256",
          "name": "amount",
          "type": "uint256"
        }
      ],
      "name": "approve",
      "outputs": [
        {
          "internalType": "bool",
          "name": "",
          "type": "bool"
        }
      ],
      "stateMutability": "nonpayable",
      "type": "function"
    },
    {
      "inputs": [
        {
          "internalType": "address",
          "name": "account",
          "type": "address"
        }
      ],
      "name": "balanceOf",
      "outputs": [
        {
          "internalType": "uint256",
          "name": "",
          "type": "uint256"
        }
      ],
      "stateMutability": "view",
      "type": "function"
    },
    {
      "inputs": [
        {
          "internalType": "uint256",
          "name": "_offerId",
          "type": "uint256"
        }
      ],
      "name": "cancelOffer",
      "outputs": [],
      "stateMutability": "payable",
      "type": "function"
    },
    {
      "inputs": [],
      "name": "cancelProposition",
      "outputs": [],
      "stateMutability": "payable",
      "type": "function"
    },
    {
      "inputs": [
        {
          "internalType": "uint256",
          "name": "_tokens",
          "type": "uint256"
        },
        {
          "internalType": "bytes32[2]",
          "name": "_hash",
          "type": "bytes32[2]"
        }
      ],
      "name": "createOffer",
      "outputs": [
        {
          "internalType": "uint256",
          "name": "",
          "type": "uint256"
        }
      ],
      "stateMutability": "payable",
      "type": "function"
    },
    {
      "inputs": [],
      "name": "decimals",
      "outputs": [
        {
          "internalType": "uint8",
          "name": "",
          "type": "uint8"
        }
      ],
      "stateMutability": "view",
      "type": "function"
    },
    {
      "inputs": [
        {
          "internalType": "address",
          "name": "spender",
          "type": "address"
        },
        {
          "internalType": "uint256",
          "name": "subtractedValue",
          "type": "uint256"
        }
      ],
      "name": "decreaseAllowance",
      "outputs": [
        {
          "internalType": "bool",
          "name": "",
          "type": "bool"
        }
      ],
      "stateMutability": "nonpayable",
      "type": "function"
    },
    {
      "inputs": [
        {
          "internalType": "uint256",
          "name": "_offer",
          "type": "uint256"
        }
      ],
      "name": "getOffer",
      "outputs": [
        {
          "internalType": "bytes32[2]",
          "name": "",
          "type": "bytes32[2]"
        },
        {
          "internalType": "uint256",
          "name": "",
          "type": "uint256"
        },
        {
          "internalType": "address",
          "name": "",
          "type": "address"
        },
        {
          "internalType": "bool",
          "name": "",
          "type": "bool"
        }
      ],
      "stateMutability": "view",
      "type": "function"
    },
    {
      "inputs": [
        {
          "internalType": "address",
          "name": "_address",
          "type": "address"
        }
      ],
      "name": "getProposition",
      "outputs": [
        {
          "internalType": "uint256",
          "name": "",
          "type": "uint256"
        }
      ],
      "stateMutability": "view",
      "type": "function"
    },
    {
      "inputs": [
        {
          "internalType": "address",
          "name": "_address",
          "type": "address"
        }
      ],
      "name": "getStackedBalance",
      "outputs": [
        {
          "internalType": "uint256",
          "name": "",
          "type": "uint256"
        }
      ],
      "stateMutability": "view",
      "type": "function"
    },
    {
      "inputs": [
        {
          "internalType": "address",
          "name": "spender",
          "type": "address"
        },
        {
          "internalType": "uint256",
          "name": "addedValue",
          "type": "uint256"
        }
      ],
      "name": "increaseAllowance",
      "outputs": [
        {
          "internalType": "bool",
          "name": "",
          "type": "bool"
        }
      ],
      "stateMutability": "nonpayable",
      "type": "function"
    },
    {
      "inputs": [
        {
          "internalType": "uint256",
          "name": "_offerId",
          "type": "uint256"
        }
      ],
      "name": "makeProposition",
      "outputs": [],
      "stateMutability": "payable",
      "type": "function"
    },
    {
      "inputs": [],
      "name": "name",
      "outputs": [
        {
          "internalType": "string",
          "name": "",
          "type": "string"
        }
      ],
      "stateMutability": "view",
      "type": "function"
    },
    {
      "inputs": [],
      "name": "offerId",
      "outputs": [
        {
          "internalType": "uint256",
          "name": "",
          "type": "uint256"
        }
      ],
      "stateMutability": "view",
      "type": "function"
    },
    {
      "inputs": [],
      "name": "symbol",
      "outputs": [
        {
          "internalType": "string",
          "name": "",
          "type": "string"
        }
      ],
      "stateMutability": "view",
      "type": "function"
    },
    {
      "inputs": [],
      "name": "totalSupply",
      "outputs": [
        {
          "internalType": "uint256",
          "name": "",
          "type": "uint256"
        }
      ],
      "stateMutability": "view",
      "type": "function"
    },
    {
      "inputs": [
        {
          "internalType": "address",
          "name": "to",
          "type": "address"
        },
        {
          "internalType": "uint256",
          "name": "amount",
          "type": "uint256"
        }
      ],
      "name": "transfer",
      "outputs": [
        {
          "internalType": "bool",
          "name": "",
          "type": "bool"
        }
      ],
      "stateMutability": "nonpayable",
      "type": "function"
    },
    {
      "inputs": [
        {
          "internalType": "address",
          "name": "from",
          "type": "address"
        },
        {
          "internalType": "address",
          "name": "to",
          "type": "address"
        },
        {
          "internalType": "uint256",
          "name": "amount",
          "type": "uint256"
        }
      ],
      "name": "transferFrom",
      "outputs": [
        {
          "internalType": "bool",
          "name": "",
          "type": "bool"
        }
      ],
      "stateMutability": "nonpayable",
      "type": "function"
    }
  ],
  "transactionHash": "0x2cf0479174df3ae140b177818bd6fede6253a3a87935e48d5265a4d4be818a42",
  "args": [
    1000
  ],
  "numDeployments": 1,
  "solcInputHash": "61c1d9b2f8af1cfed02c58129c244904",
  "bytecode": "0x60806040523480156200001157600080fd5b50604051620031ab380380620031ab833981810160405281019062000037919062000358565b6040518060400160405280600381526020017f53656c00000000000000000000000000000000000000000000000000000000008152506040518060400160405280600381526020017f53454c00000000000000000000000000000000000000000000000000000000008152508160039080519060200190620000bb92919062000268565b508060049080519060200190620000d492919062000268565b505050620000e93382620000f060201b60201c565b506200052c565b600073ffffffffffffffffffffffffffffffffffffffff168273ffffffffffffffffffffffffffffffffffffffff16141562000163576040517f08c379a00000000000000000000000000000000000000000000000000000000081526004016200015a90620003eb565b60405180910390fd5b62000177600083836200025e60201b60201c565b80600260008282546200018b91906200043c565b92505081905550806000808473ffffffffffffffffffffffffffffffffffffffff1673ffffffffffffffffffffffffffffffffffffffff168152602001908152602001600020600082825401925050819055508173ffffffffffffffffffffffffffffffffffffffff16600073ffffffffffffffffffffffffffffffffffffffff167fddf252ad1be2c89b69c2b068fc378daa952ba7f163c4a11628f55a4df523b3ef836040516200023e9190620004aa565b60405180910390a36200025a600083836200026360201b60201c565b5050565b505050565b505050565b8280546200027690620004f6565b90600052602060002090601f0160209004810192826200029a5760008555620002e6565b82601f10620002b557805160ff1916838001178555620002e6565b82800160010185558215620002e6579182015b82811115620002e5578251825591602001919060010190620002c8565b5b509050620002f59190620002f9565b5090565b5b8082111562000314576000816000905550600101620002fa565b5090565b600080fd5b6000819050919050565b62000332816200031d565b81146200033e57600080fd5b50565b600081519050620003528162000327565b92915050565b60006020828403121562000371576200037062000318565b5b6000620003818482850162000341565b91505092915050565b600082825260208201905092915050565b7f45524332303a206d696e7420746f20746865207a65726f206164647265737300600082015250565b6000620003d3601f836200038a565b9150620003e0826200039b565b602082019050919050565b600060208201905081810360008301526200040681620003c4565b9050919050565b7f4e487b7100000000000000000000000000000000000000000000000000000000600052601160045260246000fd5b600062000449826200031d565b915062000456836200031d565b9250827fffffffffffffffffffffffffffffffffffffffffffffffffffffffffffffffff038211156200048e576200048d6200040d565b5b828201905092915050565b620004a4816200031d565b82525050565b6000602082019050620004c1600083018462000499565b92915050565b7f4e487b7100000000000000000000000000000000000000000000000000000000600052602260045260246000fd5b600060028204905060018216806200050f57607f821691505b60208210811415620005265762000525620004c7565b5b50919050565b612c6f806200053c6000396000f3fe60806040526004361061011f5760003560e01c8063604b2b6f116100a0578063a457c2d711610064578063a457c2d7146103de578063a9059cbb1461041b578063ce3a355114610458578063dd62ed3e14610495578063ef706adf146104d25761011f565b8063604b2b6f1461030157806370a082311461031d578063918d407d1461035a57806395960bde1461037657806395d89b41146103b35761011f565b806323b872dd116100e757806323b872dd14610212578063313ce5671461024f578063395093511461027a5780634579268a146102b757806355457ee9146102f75761011f565b806306fdde0314610124578063095ea7b31461014f5780630c8643511461018c57806318160ddd146101bc57806321ce9f91146101e7575b600080fd5b34801561013057600080fd5b506101396104ee565b6040516101469190611d14565b60405180910390f35b34801561015b57600080fd5b5061017660048036038101906101719190611dd9565b610580565b6040516101839190611e34565b60405180910390f35b6101a660048036038101906101a19190611fbb565b6105a3565b6040516101b3919061200a565b60405180910390f35b3480156101c857600080fd5b506101d1610873565b6040516101de919061200a565b60405180910390f35b3480156101f357600080fd5b506101fc61087d565b604051610209919061200a565b60405180910390f35b34801561021e57600080fd5b5061023960048036038101906102349190612025565b610883565b6040516102469190611e34565b60405180910390f35b34801561025b57600080fd5b506102646108b2565b6040516102719190612094565b60405180910390f35b34801561028657600080fd5b506102a1600480360381019061029c9190611dd9565b6108bb565b6040516102ae9190611e34565b60405180910390f35b3480156102c357600080fd5b506102de60048036038101906102d991906120af565b6108f2565b6040516102ee9493929190612196565b60405180910390f35b6102ff61097e565b005b61031b600480360381019061031691906120af565b610a85565b005b34801561032957600080fd5b50610344600480360381019061033f91906121db565b610dba565b604051610351919061200a565b60405180910390f35b610374600480360381019061036f9190612208565b610e02565b005b34801561038257600080fd5b5061039d600480360381019061039891906121db565b61120d565b6040516103aa919061200a565b60405180910390f35b3480156103bf57600080fd5b506103c8611256565b6040516103d59190611d14565b60405180910390f35b3480156103ea57600080fd5b5061040560048036038101906104009190611dd9565b6112e8565b6040516104129190611e34565b60405180910390f35b34801561042757600080fd5b50610442600480360381019061043d9190611dd9565b61135f565b60405161044f9190611e34565b60405180910390f35b34801561046457600080fd5b5061047f600480360381019061047a91906121db565b611382565b60405161048c919061200a565b60405180910390f35b3480156104a157600080fd5b506104bc60048036038101906104b79190612248565b6113cb565b6040516104c9919061200a565b60405180910390f35b6104ec60048036038101906104e791906120af565b611452565b005b6060600380546104fd906122b7565b80601f0160208091040260200160405190810160405280929190818152602001828054610529906122b7565b80156105765780601f1061054b57610100808354040283529160200191610576565b820191906000526020600020905b81548152906001019060200180831161055957829003601f168201915b5050505050905090565b60008061058b611778565b9050610598818585611780565b600191505092915050565b60008083116105e7576040517f08c379a00000000000000000000000000000000000000000000000000000000081526004016105de90612335565b60405180910390fd5b6000801b826000600281106105ff576105fe612355565b5b60200201511415610645576040517f08c379a000000000000000000000000000000000000000000000000000000000815260040161063c906123d0565b60405180910390fd5b6000801b8260016002811061065d5761065c612355565b5b602002015114156106a3576040517f08c379a000000000000000000000000000000000000000000000000000000000815260040161069a906123d0565b60405180910390fd5b6106ae33308561194b565b600560008154809291906106c19061241f565b91905055506040518060a00160405280836000600281106106e5576106e4612355565b5b602002015181526020018360016002811061070357610702612355565b5b602002015181526020018481526020013373ffffffffffffffffffffffffffffffffffffffff1681526020016001151581525060066000600554815260200190815260200160002060008201518160000155602082015181600101556040820151816002015560608201518160030160006101000a81548173ffffffffffffffffffffffffffffffffffffffff021916908373ffffffffffffffffffffffffffffffffffffffff16021790555060808201518160030160146101000a81548160ff02191690831515021790555090505082600860003373ffffffffffffffffffffffffffffffffffffffff1673ffffffffffffffffffffffffffffffffffffffff16815260200190815260200160002060008282546108229190612468565b925050819055507feff97c9761d42f9cc7a3da5c567433bff22b2ca11da24cc9bfef2123588b9f1d60055433858560405161086094939291906124be565b60405180910390a1600554905092915050565b6000600254905090565b60055481565b60008061088e611778565b905061089b858285611bc3565b6108a685858561194b565b60019150509392505050565b60006012905090565b6000806108c6611778565b90506108e78185856108d885896113cb565b6108e29190612468565b611780565b600191505092915050565b6108fa611c59565b600080600080600660008781526020019081526020016000209050604051806040016040528082600001548152602001826001015481525081600201548260030160009054906101000a900473ffffffffffffffffffffffffffffffffffffffff168360030160149054906101000a900460ff169450945094509450509193509193565b6000600760003373ffffffffffffffffffffffffffffffffffffffff1673ffffffffffffffffffffffffffffffffffffffff1681526020019081526020016000205490506000811415610a06576040517f08c379a00000000000000000000000000000000000000000000000000000000081526004016109fd9061254f565b60405180910390fd5b600760003373ffffffffffffffffffffffffffffffffffffffff1673ffffffffffffffffffffffffffffffffffffffff168152602001908152602001600020600090557f1298fc5ff44661f44eb6c9b97b499d8afd57fd00b4f3ac2cd518ccab8fea4a7b8133604051610a7a92919061256f565b60405180910390a150565b806000600660008381526020019081526020016000206040518060a00160405290816000820154815260200160018201548152602001600282015481526020016003820160009054906101000a900473ffffffffffffffffffffffffffffffffffffffff1673ffffffffffffffffffffffffffffffffffffffff1673ffffffffffffffffffffffffffffffffffffffff1681526020016003820160149054906101000a900460ff1615151515815250509050600073ffffffffffffffffffffffffffffffffffffffff16816060015173ffffffffffffffffffffffffffffffffffffffff161415610bab576040517f08c379a0000000000000000000000000000000000000000000000000000000008152600401610ba2906125e4565b60405180910390fd5b8060800151610bef576040517f08c379a0000000000000000000000000000000000000000000000000000000008152600401610be690612650565b60405180910390fd5b6000600660008581526020019081526020016000206040518060a00160405290816000820154815260200160018201548152602001600282015481526020016003820160009054906101000a900473ffffffffffffffffffffffffffffffffffffffff1673ffffffffffffffffffffffffffffffffffffffff1673ffffffffffffffffffffffffffffffffffffffff1681526020016003820160149054906101000a900460ff16151515158152505090503373ffffffffffffffffffffffffffffffffffffffff16816060015173ffffffffffffffffffffffffffffffffffffffff161415610d13576040517f08c379a0000000000000000000000000000000000000000000000000000000008152600401610d0a906126bc565b60405180910390fd5b83600760003373ffffffffffffffffffffffffffffffffffffffff1673ffffffffffffffffffffffffffffffffffffffff168152602001908152602001600020819055507f1f9d575367d33deb7e583b9f6847a1c0441e217e86e108be9972fa4ee714b733843383604001516040518060400160405280866000015181526020018660200151815250604051610dac94939291906124be565b60405180910390a150505050565b60008060008373ffffffffffffffffffffffffffffffffffffffff1673ffffffffffffffffffffffffffffffffffffffff168152602001908152602001600020549050919050565b816000600660008381526020019081526020016000206040518060a00160405290816000820154815260200160018201548152602001600282015481526020016003820160009054906101000a900473ffffffffffffffffffffffffffffffffffffffff1673ffffffffffffffffffffffffffffffffffffffff1673ffffffffffffffffffffffffffffffffffffffff1681526020016003820160149054906101000a900460ff1615151515815250509050600073ffffffffffffffffffffffffffffffffffffffff16816060015173ffffffffffffffffffffffffffffffffffffffff161415610f28576040517f08c379a0000000000000000000000000000000000000000000000000000000008152600401610f1f906125e4565b60405180910390fd5b8060800151610f6c576040517f08c379a0000000000000000000000000000000000000000000000000000000008152600401610f6390612650565b60405180910390fd5b60006006600086815260200190815260200160002090503373ffffffffffffffffffffffffffffffffffffffff168160030160009054906101000a900473ffffffffffffffffffffffffffffffffffffffff1673ffffffffffffffffffffffffffffffffffffffff1614611015576040517f08c379a000000000000000000000000000000000000000000000000000000000815260040161100c90612728565b60405180910390fd5b84600760008673ffffffffffffffffffffffffffffffffffffffff1673ffffffffffffffffffffffffffffffffffffffff1681526020019081526020016000205414611096576040517f08c379a000000000000000000000000000000000000000000000000000000000815260040161108d906127ba565b60405180910390fd5b60008160030160146101000a81548160ff0219169083151502179055507f021023dbf8343eff69d502d7f5d0424ae73de16df1e91b67983fff29991b149f858260030160009054906101000a900473ffffffffffffffffffffffffffffffffffffffff16868460020154604051806040016040528087600001548152602001876001015481525060405161112e9594939291906127da565b60405180910390a18060020154600860008360030160009054906101000a900473ffffffffffffffffffffffffffffffffffffffff1673ffffffffffffffffffffffffffffffffffffffff1673ffffffffffffffffffffffffffffffffffffffff16815260200190815260200160002060008282546111ad919061282d565b925050819055506111c33085836002015461194b565b600760008573ffffffffffffffffffffffffffffffffffffffff1673ffffffffffffffffffffffffffffffffffffffff168152602001908152602001600020600090555050505050565b6000600860008373ffffffffffffffffffffffffffffffffffffffff1673ffffffffffffffffffffffffffffffffffffffff168152602001908152602001600020549050919050565b606060048054611265906122b7565b80601f0160208091040260200160405190810160405280929190818152602001828054611291906122b7565b80156112de5780601f106112b3576101008083540402835291602001916112de565b820191906000526020600020905b8154815290600101906020018083116112c157829003601f168201915b5050505050905090565b6000806112f3611778565b9050600061130182866113cb565b905083811015611346576040517f08c379a000000000000000000000000000000000000000000000000000000000815260040161133d906128d3565b60405180910390fd5b6113538286868403611780565b60019250505092915050565b60008061136a611778565b905061137781858561194b565b600191505092915050565b6000600760008373ffffffffffffffffffffffffffffffffffffffff1673ffffffffffffffffffffffffffffffffffffffff168152602001908152602001600020549050919050565b6000600160008473ffffffffffffffffffffffffffffffffffffffff1673ffffffffffffffffffffffffffffffffffffffff16815260200190815260200160002060008373ffffffffffffffffffffffffffffffffffffffff1673ffffffffffffffffffffffffffffffffffffffff16815260200190815260200160002054905092915050565b806000600660008381526020019081526020016000206040518060a00160405290816000820154815260200160018201548152602001600282015481526020016003820160009054906101000a900473ffffffffffffffffffffffffffffffffffffffff1673ffffffffffffffffffffffffffffffffffffffff1673ffffffffffffffffffffffffffffffffffffffff1681526020016003820160149054906101000a900460ff1615151515815250509050600073ffffffffffffffffffffffffffffffffffffffff16816060015173ffffffffffffffffffffffffffffffffffffffff161415611578576040517f08c379a000000000000000000000000000000000000000000000000000000000815260040161156f906125e4565b60405180910390fd5b80608001516115bc576040517f08c379a00000000000000000000000000000000000000000000000000000000081526004016115b390612650565b60405180910390fd5b60006006600085815260200190815260200160002090503373ffffffffffffffffffffffffffffffffffffffff168160030160009054906101000a900473ffffffffffffffffffffffffffffffffffffffff1673ffffffffffffffffffffffffffffffffffffffff1614611665576040517f08c379a000000000000000000000000000000000000000000000000000000000815260040161165c90612728565b60405180910390fd5b60008160020154905060066000868152602001908152602001600020600080820160009055600182016000905560028201600090556003820160006101000a81549073ffffffffffffffffffffffffffffffffffffffff02191690556003820160146101000a81549060ff0219169055505080600860003373ffffffffffffffffffffffffffffffffffffffff1673ffffffffffffffffffffffffffffffffffffffff1681526020019081526020016000206000828254611726919061282d565b925050819055507f9a4dfa8787b349e9b45b60504f991c5c9f9cda8dadabdc8e4a3f4cb8608220a3853360405161175e92919061256f565b60405180910390a161177130338361194b565b5050505050565b600033905090565b600073ffffffffffffffffffffffffffffffffffffffff168373ffffffffffffffffffffffffffffffffffffffff1614156117f0576040517f08c379a00000000000000000000000000000000000000000000000000000000081526004016117e790612965565b60405180910390fd5b600073ffffffffffffffffffffffffffffffffffffffff168273ffffffffffffffffffffffffffffffffffffffff161415611860576040517f08c379a0000000000000000000000000000000000000000000000000000000008152600401611857906129f7565b60405180910390fd5b80600160008573ffffffffffffffffffffffffffffffffffffffff1673ffffffffffffffffffffffffffffffffffffffff16815260200190815260200160002060008473ffffffffffffffffffffffffffffffffffffffff1673ffffffffffffffffffffffffffffffffffffffff168152602001908152602001600020819055508173ffffffffffffffffffffffffffffffffffffffff168373ffffffffffffffffffffffffffffffffffffffff167f8c5be1e5ebec7d5bd14f71427d1e84f3dd0314c0f7b2291e5b200ac8c7c3b9258360405161193e919061200a565b60405180910390a3505050565b600073ffffffffffffffffffffffffffffffffffffffff168373ffffffffffffffffffffffffffffffffffffffff1614156119bb576040517f08c379a00000000000000000000000000000000000000000000000000000000081526004016119b290612a89565b60405180910390fd5b600073ffffffffffffffffffffffffffffffffffffffff168273ffffffffffffffffffffffffffffffffffffffff161415611a2b576040517f08c379a0000000000000000000000000000000000000000000000000000000008152600401611a2290612b1b565b60405180910390fd5b611a36838383611c4f565b60008060008573ffffffffffffffffffffffffffffffffffffffff1673ffffffffffffffffffffffffffffffffffffffff16815260200190815260200160002054905081811015611abc576040517f08c379a0000000000000000000000000000000000000000000000000000000008152600401611ab390612bad565b60405180910390fd5b8181036000808673ffffffffffffffffffffffffffffffffffffffff1673ffffffffffffffffffffffffffffffffffffffff16815260200190815260200160002081905550816000808573ffffffffffffffffffffffffffffffffffffffff1673ffffffffffffffffffffffffffffffffffffffff168152602001908152602001600020600082825401925050819055508273ffffffffffffffffffffffffffffffffffffffff168473ffffffffffffffffffffffffffffffffffffffff167fddf252ad1be2c89b69c2b068fc378daa952ba7f163c4a11628f55a4df523b3ef84604051611baa919061200a565b60405180910390a3611bbd848484611c54565b50505050565b6000611bcf84846113cb565b90507fffffffffffffffffffffffffffffffffffffffffffffffffffffffffffffffff8114611c495781811015611c3b576040517f08c379a0000000000000000000000000000000000000000000000000000000008152600401611c3290612c19565b60405180910390fd5b611c488484848403611780565b5b50505050565b505050565b505050565b6040518060400160405280600290602082028036833780820191505090505090565b600081519050919050565b600082825260208201905092915050565b60005b83811015611cb5578082015181840152602081019050611c9a565b83811115611cc4576000848401525b50505050565b6000601f19601f8301169050919050565b6000611ce682611c7b565b611cf08185611c86565b9350611d00818560208601611c97565b611d0981611cca565b840191505092915050565b60006020820190508181036000830152611d2e8184611cdb565b905092915050565b6000604051905090565b600080fd5b600073ffffffffffffffffffffffffffffffffffffffff82169050919050565b6000611d7082611d45565b9050919050565b611d8081611d65565b8114611d8b57600080fd5b50565b600081359050611d9d81611d77565b92915050565b6000819050919050565b611db681611da3565b8114611dc157600080fd5b50565b600081359050611dd381611dad565b92915050565b60008060408385031215611df057611def611d40565b5b6000611dfe85828601611d8e565b9250506020611e0f85828601611dc4565b9150509250929050565b60008115159050919050565b611e2e81611e19565b82525050565b6000602082019050611e496000830184611e25565b92915050565b600080fd5b7f4e487b7100000000000000000000000000000000000000000000000000000000600052604160045260246000fd5b611e8c82611cca565b810181811067ffffffffffffffff82111715611eab57611eaa611e54565b5b80604052505050565b6000611ebe611d36565b9050611eca8282611e83565b919050565b600067ffffffffffffffff821115611eea57611ee9611e54565b5b602082029050919050565b600080fd5b6000819050919050565b611f0d81611efa565b8114611f1857600080fd5b50565b600081359050611f2a81611f04565b92915050565b6000611f43611f3e84611ecf565b611eb4565b90508060208402830185811115611f5d57611f5c611ef5565b5b835b81811015611f865780611f728882611f1b565b845260208401935050602081019050611f5f565b5050509392505050565b600082601f830112611fa557611fa4611e4f565b5b6002611fb2848285611f30565b91505092915050565b60008060608385031215611fd257611fd1611d40565b5b6000611fe085828601611dc4565b9250506020611ff185828601611f90565b9150509250929050565b61200481611da3565b82525050565b600060208201905061201f6000830184611ffb565b92915050565b60008060006060848603121561203e5761203d611d40565b5b600061204c86828701611d8e565b935050602061205d86828701611d8e565b925050604061206e86828701611dc4565b9150509250925092565b600060ff82169050919050565b61208e81612078565b82525050565b60006020820190506120a96000830184612085565b92915050565b6000602082840312156120c5576120c4611d40565b5b60006120d384828501611dc4565b91505092915050565b600060029050919050565b600081905092915050565b6000819050919050565b61210581611efa565b82525050565b600061211783836120fc565b60208301905092915050565b6000602082019050919050565b612139816120dc565b61214381846120e7565b925061214e826120f2565b8060005b8381101561217f578151612166878261210b565b965061217183612123565b925050600181019050612152565b505050505050565b61219081611d65565b82525050565b600060a0820190506121ab6000830187612130565b6121b86040830186611ffb565b6121c56060830185612187565b6121d26080830184611e25565b95945050505050565b6000602082840312156121f1576121f0611d40565b5b60006121ff84828501611d8e565b91505092915050565b6000806040838503121561221f5761221e611d40565b5b600061222d85828601611dc4565b925050602061223e85828601611d8e565b9150509250929050565b6000806040838503121561225f5761225e611d40565b5b600061226d85828601611d8e565b925050602061227e85828601611d8e565b9150509250929050565b7f4e487b7100000000000000000000000000000000000000000000000000000000600052602260045260246000fd5b600060028204905060018216806122cf57607f821691505b602082108114156122e3576122e2612288565b5b50919050565b7f596f75206d757374206f66666572206174206c65617374203120746f6b656e00600082015250565b600061231f601f83611c86565b915061232a826122e9565b602082019050919050565b6000602082019050818103600083015261234e81612312565b9050919050565b7f4e487b7100000000000000000000000000000000000000000000000000000000600052603260045260246000fd5b7f596f75206d7573742070726f7669646520612068617368000000000000000000600082015250565b60006123ba601783611c86565b91506123c582612384565b602082019050919050565b600060208201905081810360008301526123e9816123ad565b9050919050565b7f4e487b7100000000000000000000000000000000000000000000000000000000600052601160045260246000fd5b600061242a82611da3565b91507fffffffffffffffffffffffffffffffffffffffffffffffffffffffffffffffff82141561245d5761245c6123f0565b5b600182019050919050565b600061247382611da3565b915061247e83611da3565b9250827fffffffffffffffffffffffffffffffffffffffffffffffffffffffffffffffff038211156124b3576124b26123f0565b5b828201905092915050565b600060a0820190506124d36000830187611ffb565b6124e06020830186612187565b6124ed6040830185611ffb565b6124fa6060830184612130565b95945050505050565b7f596f7520617265206e6f7420612070726f706f73657200000000000000000000600082015250565b6000612539601683611c86565b915061254482612503565b602082019050919050565b600060208201905081810360008301526125688161252c565b9050919050565b60006040820190506125846000830185611ffb565b6125916020830184612187565b9392505050565b7f4f6666657220646f6573206e6f74206578697374000000000000000000000000600082015250565b60006125ce601483611c86565b91506125d982612598565b602082019050919050565b600060208201905081810360008301526125fd816125c1565b9050919050565b7f4f66666572206973206e6f742061637469766500000000000000000000000000600082015250565b600061263a601383611c86565b915061264582612604565b602082019050919050565b600060208201905081810360008301526126698161262d565b9050919050565b7f596f752063616e2774207265717565737420796f7572206f776e206f66666572600082015250565b60006126a6602083611c86565b91506126b182612670565b602082019050919050565b600060208201905081810360008301526126d581612699565b9050919050565b7f596f7520617265206e6f7420746865206f666665726572000000000000000000600082015250565b6000612712601783611c86565b915061271d826126dc565b602082019050919050565b6000602082019050818103600083015261274181612705565b9050919050565b7f5468652070726f76696465642061646472657373206973206e6f74206120707260008201527f6f706f7365720000000000000000000000000000000000000000000000000000602082015250565b60006127a4602683611c86565b91506127af82612748565b604082019050919050565b600060208201905081810360008301526127d381612797565b9050919050565b600060c0820190506127ef6000830188611ffb565b6127fc6020830187612187565b6128096040830186612187565b6128166060830185611ffb565b6128236080830184612130565b9695505050505050565b600061283882611da3565b915061284383611da3565b925082821015612856576128556123f0565b5b828203905092915050565b7f45524332303a2064656372656173656420616c6c6f77616e63652062656c6f7760008201527f207a65726f000000000000000000000000000000000000000000000000000000602082015250565b60006128bd602583611c86565b91506128c882612861565b604082019050919050565b600060208201905081810360008301526128ec816128b0565b9050919050565b7f45524332303a20617070726f76652066726f6d20746865207a65726f2061646460008201527f7265737300000000000000000000000000000000000000000000000000000000602082015250565b600061294f602483611c86565b915061295a826128f3565b604082019050919050565b6000602082019050818103600083015261297e81612942565b9050919050565b7f45524332303a20617070726f766520746f20746865207a65726f20616464726560008201527f7373000000000000000000000000000000000000000000000000000000000000602082015250565b60006129e1602283611c86565b91506129ec82612985565b604082019050919050565b60006020820190508181036000830152612a10816129d4565b9050919050565b7f45524332303a207472616e736665722066726f6d20746865207a65726f20616460008201527f6472657373000000000000000000000000000000000000000000000000000000602082015250565b6000612a73602583611c86565b9150612a7e82612a17565b604082019050919050565b60006020820190508181036000830152612aa281612a66565b9050919050565b7f45524332303a207472616e7366657220746f20746865207a65726f206164647260008201527f6573730000000000000000000000000000000000000000000000000000000000602082015250565b6000612b05602383611c86565b9150612b1082612aa9565b604082019050919050565b60006020820190508181036000830152612b3481612af8565b9050919050565b7f45524332303a207472616e7366657220616d6f756e742065786365656473206260008201527f616c616e63650000000000000000000000000000000000000000000000000000602082015250565b6000612b97602683611c86565b9150612ba282612b3b565b604082019050919050565b60006020820190508181036000830152612bc681612b8a565b9050919050565b7f45524332303a20696e73756666696369656e7420616c6c6f77616e6365000000600082015250565b6000612c03601d83611c86565b9150612c0e82612bcd565b602082019050919050565b60006020820190508181036000830152612c3281612bf6565b905091905056fea26469706673582212208463274697b35f05a1db74f0696a698941d013f312c8685b12614506a0b5f68d64736f6c63430008090033",
  "devdoc": {
    "kind": "dev",
    "methods": {
      "allowance(address,address)": {
        "details": "See {IERC20-allowance}."
      },
      "approve(address,uint256)": {
        "details": "See {IERC20-approve}. NOTE: If `amount` is the maximum `uint256`, the allowance is not updated on `transferFrom`. This is semantically equivalent to an infinite approval. Requirements: - `spender` cannot be the zero address."
      },
      "balanceOf(address)": {
        "details": "See {IERC20-balanceOf}."
      },
      "decimals()": {
        "details": "Returns the number of decimals used to get its user representation. For example, if `decimals` equals `2`, a balance of `505` tokens should be displayed to a user as `5.05` (`505 / 10 ** 2`). Tokens usually opt for a value of 18, imitating the relationship between Ether and Wei. This is the value {ERC20} uses, unless this function is overridden; NOTE: This information is only used for _display_ purposes: it in no way affects any of the arithmetic of the contract, including {IERC20-balanceOf} and {IERC20-transfer}."
      },
      "decreaseAllowance(address,uint256)": {
        "details": "Atomically decreases the allowance granted to `spender` by the caller. This is an alternative to {approve} that can be used as a mitigation for problems described in {IERC20-approve}. Emits an {Approval} event indicating the updated allowance. Requirements: - `spender` cannot be the zero address. - `spender` must have allowance for the caller of at least `subtractedValue`."
      },
      "increaseAllowance(address,uint256)": {
        "details": "Atomically increases the allowance granted to `spender` by the caller. This is an alternative to {approve} that can be used as a mitigation for problems described in {IERC20-approve}. Emits an {Approval} event indicating the updated allowance. Requirements: - `spender` cannot be the zero address."
      },
      "name()": {
        "details": "Returns the name of the token."
      },
      "symbol()": {
        "details": "Returns the symbol of the token, usually a shorter version of the name."
      },
      "totalSupply()": {
        "details": "See {IERC20-totalSupply}."
      },
      "transfer(address,uint256)": {
        "details": "See {IERC20-transfer}. Requirements: - `to` cannot be the zero address. - the caller must have a balance of at least `amount`."
      },
      "transferFrom(address,address,uint256)": {
        "details": "See {IERC20-transferFrom}. Emits an {Approval} event indicating the updated allowance. This is not required by the EIP. See the note at the beginning of {ERC20}. NOTE: Does not update the allowance if the current allowance is the maximum `uint256`. Requirements: - `from` and `to` cannot be the zero address. - `from` must have a balance of at least `amount`. - the caller must have allowance for ``from``'s tokens of at least `amount`."
      }
    },
    "version": 1
  },
  "userdoc": {
    "kind": "user",
    "methods": {},
    "version": 1
  },
  "storageLayout": {
    "storage": [
      {
        "astId": 15,
        "contract": "contracts/Sel.sol:Sel",
        "label": "_balances",
        "offset": 0,
        "slot": "0",
        "type": "t_mapping(t_address,t_uint256)"
      },
      {
        "astId": 21,
        "contract": "contracts/Sel.sol:Sel",
        "label": "_allowances",
        "offset": 0,
        "slot": "1",
        "type": "t_mapping(t_address,t_mapping(t_address,t_uint256))"
      },
      {
        "astId": 23,
        "contract": "contracts/Sel.sol:Sel",
        "label": "_totalSupply",
        "offset": 0,
        "slot": "2",
        "type": "t_uint256"
      },
      {
        "astId": 25,
        "contract": "contracts/Sel.sol:Sel",
        "label": "_name",
        "offset": 0,
        "slot": "3",
        "type": "t_string_storage"
      },
      {
        "astId": 27,
        "contract": "contracts/Sel.sol:Sel",
        "label": "_symbol",
        "offset": 0,
        "slot": "4",
        "type": "t_string_storage"
      },
      {
        "astId": 746,
        "contract": "contracts/Sel.sol:Sel",
        "label": "offerId",
        "offset": 0,
        "slot": "5",
        "type": "t_uint256"
      },
      {
        "astId": 751,
        "contract": "contracts/Sel.sol:Sel",
        "label": "offers",
        "offset": 0,
        "slot": "6",
        "type": "t_mapping(t_uint256,t_struct(Offer)726_storage)"
      },
      {
        "astId": 755,
        "contract": "contracts/Sel.sol:Sel",
        "label": "proposers",
        "offset": 0,
        "slot": "7",
        "type": "t_mapping(t_address,t_uint256)"
      },
      {
        "astId": 759,
        "contract": "contracts/Sel.sol:Sel",
        "label": "_stack",
        "offset": 0,
        "slot": "8",
        "type": "t_mapping(t_address,t_uint256)"
      }
    ],
    "types": {
      "t_address": {
        "encoding": "inplace",
        "label": "address",
        "numberOfBytes": "20"
      },
      "t_bool": {
        "encoding": "inplace",
        "label": "bool",
        "numberOfBytes": "1"
      },
      "t_bytes32": {
        "encoding": "inplace",
        "label": "bytes32",
        "numberOfBytes": "32"
      },
      "t_mapping(t_address,t_mapping(t_address,t_uint256))": {
        "encoding": "mapping",
        "key": "t_address",
        "label": "mapping(address => mapping(address => uint256))",
        "numberOfBytes": "32",
        "value": "t_mapping(t_address,t_uint256)"
      },
      "t_mapping(t_address,t_uint256)": {
        "encoding": "mapping",
        "key": "t_address",
        "label": "mapping(address => uint256)",
        "numberOfBytes": "32",
        "value": "t_uint256"
      },
      "t_mapping(t_uint256,t_struct(Offer)726_storage)": {
        "encoding": "mapping",
        "key": "t_uint256",
        "label": "mapping(uint256 => struct Offer)",
        "numberOfBytes": "32",
        "value": "t_struct(Offer)726_storage"
      },
      "t_string_storage": {
        "encoding": "bytes",
        "label": "string",
        "numberOfBytes": "32"
      },
      "t_struct(Offer)726_storage": {
        "encoding": "inplace",
        "label": "struct Offer",
        "members": [
          {
            "astId": 717,
            "contract": "contracts/Sel.sol:Sel",
            "label": "hash1",
            "offset": 0,
            "slot": "0",
            "type": "t_bytes32"
          },
          {
            "astId": 719,
            "contract": "contracts/Sel.sol:Sel",
            "label": "hash2",
            "offset": 0,
            "slot": "1",
            "type": "t_bytes32"
          },
          {
            "astId": 721,
            "contract": "contracts/Sel.sol:Sel",
            "label": "value",
            "offset": 0,
            "slot": "2",
            "type": "t_uint256"
          },
          {
            "astId": 723,
            "contract": "contracts/Sel.sol:Sel",
            "label": "offerer",
            "offset": 0,
            "slot": "3",
            "type": "t_address"
          },
          {
            "astId": 725,
            "contract": "contracts/Sel.sol:Sel",
            "label": "active",
            "offset": 20,
            "slot": "3",
            "type": "t_bool"
          }
        ],
        "numberOfBytes": "128"
      },
      "t_uint256": {
        "encoding": "inplace",
        "label": "uint256",
        "numberOfBytes": "32"
      }
    }
  }
}