{
    "_format": "hh-sol-artifact-1",
    "contractName": "Sel",
    "sourceName": "contracts/Sel.sol",
    "abi": [
        {
            "inputs": [
                {
                    "internalType": "uint256",
                    "name": "_mintValue",
                    "type": "uint256"
                }
            ],
            "stateMutability": "nonpayable",
            "type": "constructor"
        },
        {
            "anonymous": false,
            "inputs": [
                {
                    "indexed": true,
                    "internalType": "address",
                    "name": "owner",
                    "type": "address"
                },
                {
                    "indexed": true,
                    "internalType": "address",
                    "name": "spender",
                    "type": "address"
                },
                {
                    "indexed": false,
                    "internalType": "uint256",
                    "name": "value",
                    "type": "uint256"
                }
            ],
            "name": "Approval",
            "type": "event"
        },
        {
            "anonymous": false,
            "inputs": [
                {
                    "indexed": false,
                    "internalType": "uint256",
                    "name": "newVersion",
                    "type": "uint256"
                }
            ],
            "name": "InteractionsReset",
            "type": "event"
        },
        {
            "anonymous": false,
            "inputs": [
                {
                    "indexed": false,
                    "internalType": "uint256",
                    "name": "offerId",
                    "type": "uint256"
                },
                {
                    "indexed": false,
                    "internalType": "address",
                    "name": "offerer",
                    "type": "address"
                }
            ],
            "name": "OfferCanceled",
            "type": "event"
        },
        {
            "anonymous": false,
            "inputs": [
                {
                    "indexed": false,
                    "internalType": "uint256",
                    "name": "offerId",
                    "type": "uint256"
                },
                {
                    "indexed": false,
                    "internalType": "address",
                    "name": "offerer",
                    "type": "address"
                },
                {
                    "indexed": false,
                    "internalType": "uint256",
                    "name": "tokens",
                    "type": "uint256"
                },
                {
                    "indexed": false,
                    "internalType": "bytes32[2]",
                    "name": "hash",
                    "type": "bytes32[2]"
                }
            ],
            "name": "OfferCreated",
            "type": "event"
        },
        {
            "anonymous": false,
            "inputs": [
                {
                    "indexed": false,
                    "internalType": "uint256",
                    "name": "offerId",
                    "type": "uint256"
                },
                {
                    "indexed": false,
                    "internalType": "address",
                    "name": "offerer",
                    "type": "address"
                },
                {
                    "indexed": false,
                    "internalType": "address",
                    "name": "requester",
                    "type": "address"
                },
                {
                    "indexed": false,
                    "internalType": "uint256",
                    "name": "tokens",
                    "type": "uint256"
                },
                {
                    "indexed": false,
                    "internalType": "bytes32[2]",
                    "name": "hash",
                    "type": "bytes32[2]"
                }
            ],
            "name": "PropositionAccepted",
            "type": "event"
        },
        {
            "anonymous": false,
            "inputs": [
                {
                    "indexed": false,
                    "internalType": "uint256",
                    "name": "offerId",
                    "type": "uint256"
                },
                {
                    "indexed": false,
                    "internalType": "address",
                    "name": "proposer",
                    "type": "address"
                }
            ],
            "name": "PropositionCanceled",
            "type": "event"
        },
        {
            "anonymous": false,
            "inputs": [
                {
                    "indexed": false,
                    "internalType": "uint256",
                    "name": "offerId",
                    "type": "uint256"
                },
                {
                    "indexed": false,
                    "internalType": "address",
                    "name": "proposer",
                    "type": "address"
                },
                {
                    "indexed": false,
                    "internalType": "uint256",
                    "name": "tokens",
                    "type": "uint256"
                },
                {
                    "indexed": false,
                    "internalType": "bytes32[2]",
                    "name": "hash",
                    "type": "bytes32[2]"
                }
            ],
            "name": "PropositionMade",
            "type": "event"
        },
        {
            "anonymous": false,
            "inputs": [
                {
                    "indexed": true,
                    "internalType": "address",
                    "name": "from",
                    "type": "address"
                },
                {
                    "indexed": true,
                    "internalType": "address",
                    "name": "to",
                    "type": "address"
                },
                {
                    "indexed": false,
                    "internalType": "uint256",
                    "name": "value",
                    "type": "uint256"
                }
            ],
            "name": "Transfer",
            "type": "event"
        },
        {
            "anonymous": false,
            "inputs": [
                {
                    "indexed": true,
                    "internalType": "address",
                    "name": "rater",
                    "type": "address"
                },
                {
                    "indexed": true,
                    "internalType": "address",
                    "name": "ratee",
                    "type": "address"
                },
                {
                    "indexed": false,
                    "internalType": "uint256",
                    "name": "rating",
                    "type": "uint256"
                }
            ],
            "name": "UserRated",
            "type": "event"
        },
        {
            "inputs": [
                {
                    "internalType": "uint256",
                    "name": "_offerId",
                    "type": "uint256"
                },
                {
                    "internalType": "address",
                    "name": "proposer",
                    "type": "address"
                }
            ],
            "name": "acceptOffer",
            "outputs": [],
            "stateMutability": "payable",
            "type": "function"
        },
        {
            "inputs": [
                {
                    "internalType": "address",
                    "name": "owner",
                    "type": "address"
                },
                {
                    "internalType": "address",
                    "name": "spender",
                    "type": "address"
                }
            ],
            "name": "allowance",
            "outputs": [
                {
                    "internalType": "uint256",
                    "name": "",
                    "type": "uint256"
                }
            ],
            "stateMutability": "view",
            "type": "function"
        },
        {
            "inputs": [
                {
                    "internalType": "address",
                    "name": "spender",
                    "type": "address"
                },
                {
                    "internalType": "uint256",
                    "name": "amount",
                    "type": "uint256"
                }
            ],
            "name": "approve",
            "outputs": [
                {
                    "internalType": "bool",
                    "name": "",
                    "type": "bool"
                }
            ],
            "stateMutability": "nonpayable",
            "type": "function"
        },
        {
            "inputs": [
                {
                    "internalType": "address",
                    "name": "account",
                    "type": "address"
                }
            ],
            "name": "balanceOf",
            "outputs": [
                {
                    "internalType": "uint256",
                    "name": "",
                    "type": "uint256"
                }
            ],
            "stateMutability": "view",
            "type": "function"
        },
        {
            "inputs": [
                {
                    "internalType": "uint256",
                    "name": "_offerId",
                    "type": "uint256"
                }
            ],
            "name": "cancelOffer",
            "outputs": [],
            "stateMutability": "payable",
            "type": "function"
        },
        {
            "inputs": [],
            "name": "cancelProposition",
            "outputs": [],
            "stateMutability": "payable",
            "type": "function"
        },
        {
            "inputs": [
                {
                    "internalType": "uint256",
                    "name": "_tokens",
                    "type": "uint256"
                },
                {
                    "internalType": "bytes32[2]",
                    "name": "_hash",
                    "type": "bytes32[2]"
                }
            ],
            "name": "createOffer",
            "outputs": [],
            "stateMutability": "payable",
            "type": "function"
        },
        {
            "inputs": [],
            "name": "decimals",
            "outputs": [
                {
                    "internalType": "uint8",
                    "name": "",
                    "type": "uint8"
                }
            ],
            "stateMutability": "view",
            "type": "function"
        },
        {
            "inputs": [
                {
                    "internalType": "address",
                    "name": "spender",
                    "type": "address"
                },
                {
                    "internalType": "uint256",
                    "name": "subtractedValue",
                    "type": "uint256"
                }
            ],
            "name": "decreaseAllowance",
            "outputs": [
                {
                    "internalType": "bool",
                    "name": "",
                    "type": "bool"
                }
            ],
            "stateMutability": "nonpayable",
            "type": "function"
        },
        {
            "inputs": [
                {
                    "internalType": "uint256",
                    "name": "_freeTokens",
                    "type": "uint256"
                }
            ],
            "name": "getFreeTokens",
            "outputs": [],
            "stateMutability": "nonpayable",
            "type": "function"
        },
        {
            "inputs": [
                {
                    "internalType": "uint256",
                    "name": "_offer",
                    "type": "uint256"
                }
            ],
            "name": "getOffer",
            "outputs": [
                {
                    "internalType": "bytes32[2]",
                    "name": "",
                    "type": "bytes32[2]"
                },
                {
                    "internalType": "uint256",
                    "name": "",
                    "type": "uint256"
                },
                {
                    "internalType": "address",
                    "name": "",
                    "type": "address"
                },
                {
                    "internalType": "bool",
                    "name": "",
                    "type": "bool"
                }
            ],
            "stateMutability": "view",
            "type": "function"
        },
        {
            "inputs": [
                {
                    "internalType": "address",
                    "name": "_address",
                    "type": "address"
                }
            ],
            "name": "getProposition",
            "outputs": [
                {
                    "internalType": "uint256",
                    "name": "",
                    "type": "uint256"
                }
            ],
            "stateMutability": "view",
            "type": "function"
        },
        {
            "inputs": [
                {
                    "internalType": "address",
                    "name": "_user",
                    "type": "address"
                }
            ],
            "name": "getRating",
            "outputs": [
                {
                    "internalType": "uint256",
                    "name": "",
                    "type": "uint256"
                }
            ],
            "stateMutability": "view",
            "type": "function"
        },
        {
            "inputs": [
                {
                    "internalType": "address",
                    "name": "_address",
                    "type": "address"
                }
            ],
            "name": "getStackedBalance",
            "outputs": [
                {
                    "internalType": "uint256",
                    "name": "",
                    "type": "uint256"
                }
            ],
            "stateMutability": "view",
            "type": "function"
        },
        {
            "inputs": [
                {
                    "internalType": "address",
                    "name": "spender",
                    "type": "address"
                },
                {
                    "internalType": "uint256",
                    "name": "addedValue",
                    "type": "uint256"
                }
            ],
            "name": "increaseAllowance",
            "outputs": [
                {
                    "internalType": "bool",
                    "name": "",
                    "type": "bool"
                }
            ],
            "stateMutability": "nonpayable",
            "type": "function"
        },
        {
            "inputs": [],
            "name": "latestOfferId",
            "outputs": [
                {
                    "internalType": "uint256",
                    "name": "",
                    "type": "uint256"
                }
            ],
            "stateMutability": "view",
            "type": "function"
        },
        {
            "inputs": [
                {
                    "internalType": "uint256",
                    "name": "_offerId",
                    "type": "uint256"
                }
            ],
            "name": "makeProposition",
            "outputs": [],
            "stateMutability": "payable",
            "type": "function"
        },
        {
            "inputs": [],
            "name": "name",
            "outputs": [
                {
                    "internalType": "string",
                    "name": "",
                    "type": "string"
                }
            ],
            "stateMutability": "view",
            "type": "function"
        },
        {
            "inputs": [
                {
                    "internalType": "address",
                    "name": "_ratee",
                    "type": "address"
                },
                {
                    "internalType": "uint256",
                    "name": "_rating",
                    "type": "uint256"
                }
            ],
            "name": "rateUser",
            "outputs": [],
            "stateMutability": "nonpayable",
            "type": "function"
        },
        {
            "inputs": [],
            "name": "resetInteractions",
            "outputs": [],
            "stateMutability": "nonpayable",
            "type": "function"
        },
        {
            "inputs": [],
            "name": "symbol",
            "outputs": [
                {
                    "internalType": "string",
                    "name": "",
                    "type": "string"
                }
            ],
            "stateMutability": "view",
            "type": "function"
        },
        {
            "inputs": [],
            "name": "totalSupply",
            "outputs": [
                {
                    "internalType": "uint256",
                    "name": "",
                    "type": "uint256"
                }
            ],
            "stateMutability": "view",
            "type": "function"
        },
        {
            "inputs": [
                {
                    "internalType": "address",
                    "name": "recipient",
                    "type": "address"
                },
                {
                    "internalType": "uint256",
                    "name": "amount",
                    "type": "uint256"
                }
            ],
            "name": "transfer",
            "outputs": [
                {
                    "internalType": "bool",
                    "name": "",
                    "type": "bool"
                }
            ],
            "stateMutability": "nonpayable",
            "type": "function"
        },
        {
            "inputs": [
                {
                    "internalType": "address",
                    "name": "sender",
                    "type": "address"
                },
                {
                    "internalType": "address",
                    "name": "recipient",
                    "type": "address"
                },
                {
                    "internalType": "uint256",
                    "name": "amount",
                    "type": "uint256"
                }
            ],
            "name": "transferFrom",
            "outputs": [
                {
                    "internalType": "bool",
                    "name": "",
                    "type": "bool"
                }
            ],
            "stateMutability": "nonpayable",
            "type": "function"
        }
    ],
    "bytecode": "0x60806040526040518060800160405280603260ff168152602001606e60ff168152602001609b60ff16815260200160b960ff16815250600e9060046200004792919062000320565b503480156200005557600080fd5b50604051620049683803806200496883398181016040528101906200007b919062000467565b6040518060400160405280600381526020017f53656c00000000000000000000000000000000000000000000000000000000008152506040518060400160405280600381526020017f53454c00000000000000000000000000000000000000000000000000000000008152508160039080519060200190620000ff92919062000377565b5080600490805190602001906200011892919062000377565b5050506200015733620001306200019f60201b60201c565b600a6200013e919062000629565b836200014b91906200067a565b620001a860201b60201c565b33600560006101000a81548173ffffffffffffffffffffffffffffffffffffffff021916908373ffffffffffffffffffffffffffffffffffffffff160217905550506200084e565b60006012905090565b600073ffffffffffffffffffffffffffffffffffffffff168273ffffffffffffffffffffffffffffffffffffffff1614156200021b576040517f08c379a000000000000000000000000000000000000000000000000000000000815260040162000212906200073c565b60405180910390fd5b6200022f600083836200031660201b60201c565b80600260008282546200024391906200075e565b92505081905550806000808473ffffffffffffffffffffffffffffffffffffffff1673ffffffffffffffffffffffffffffffffffffffff168152602001908152602001600020600082825401925050819055508173ffffffffffffffffffffffffffffffffffffffff16600073ffffffffffffffffffffffffffffffffffffffff167fddf252ad1be2c89b69c2b068fc378daa952ba7f163c4a11628f55a4df523b3ef83604051620002f69190620007cc565b60405180910390a362000312600083836200031b60201b60201c565b5050565b505050565b505050565b82805482825590600052602060002090810192821562000364579160200282015b8281111562000363578251829060ff1690559160200191906001019062000341565b5b50905062000373919062000408565b5090565b828054620003859062000818565b90600052602060002090601f016020900481019282620003a95760008555620003f5565b82601f10620003c457805160ff1916838001178555620003f5565b82800160010185558215620003f5579182015b82811115620003f4578251825591602001919060010190620003d7565b5b50905062000404919062000408565b5090565b5b808211156200042357600081600090555060010162000409565b5090565b600080fd5b6000819050919050565b62000441816200042c565b81146200044d57600080fd5b50565b600081519050620004618162000436565b92915050565b60006020828403121562000480576200047f62000427565b5b6000620004908482850162000450565b91505092915050565b7f4e487b7100000000000000000000000000000000000000000000000000000000600052601160045260246000fd5b60008160011c9050919050565b6000808291508390505b60018511156200052757808604811115620004ff57620004fe62000499565b5b60018516156200050f5780820291505b80810290506200051f85620004c8565b9450620004df565b94509492505050565b60008262000542576001905062000615565b8162000552576000905062000615565b81600181146200056b57600281146200057657620005ac565b600191505062000615565b60ff8411156200058b576200058a62000499565b5b8360020a915084821115620005a557620005a462000499565b5b5062000615565b5060208310610133831016604e8410600b8410161715620005e65782820a905083811115620005e057620005df62000499565b5b62000615565b620005f58484846001620004d5565b925090508184048111156200060f576200060e62000499565b5b81810290505b9392505050565b600060ff82169050919050565b600062000636826200042c565b915062000643836200061c565b9250620006727fffffffffffffffffffffffffffffffffffffffffffffffffffffffffffffffff848462000530565b905092915050565b600062000687826200042c565b915062000694836200042c565b9250817fffffffffffffffffffffffffffffffffffffffffffffffffffffffffffffffff0483118215151615620006d057620006cf62000499565b5b828202905092915050565b600082825260208201905092915050565b7f45524332303a206d696e7420746f20746865207a65726f206164647265737300600082015250565b600062000724601f83620006db565b91506200073182620006ec565b602082019050919050565b60006020820190508181036000830152620007578162000715565b9050919050565b60006200076b826200042c565b915062000778836200042c565b9250827fffffffffffffffffffffffffffffffffffffffffffffffffffffffffffffffff03821115620007b057620007af62000499565b5b828201905092915050565b620007c6816200042c565b82525050565b6000602082019050620007e36000830184620007bb565b92915050565b7f4e487b7100000000000000000000000000000000000000000000000000000000600052602260045260246000fd5b600060028204905060018216806200083157607f821691505b60208210811415620008485762000847620007e9565b5b50919050565b61410a806200085e6000396000f3fe60806040526004361061014b5760003560e01c806373780dcf116100b6578063a457c2d71161006f578063a457c2d714610471578063a9059cbb146104ae578063c57e683a146104eb578063ce3a355114610516578063dd62ed3e14610553578063ef706adf146105905761014b565b806373780dcf146103705780637b101b1b1461038757806380fc9c0e146103b0578063918d407d146103ed57806395960bde1461040957806395d89b41146104465761014b565b8063395093511161010857806339509351146102675780633d4effc4146102a45780634579268a146102cd57806355457ee91461030d578063604b2b6f1461031757806370a08231146103335761014b565b806306fdde0314610150578063095ea7b31461017b5780630c864351146101b857806318160ddd146101d457806323b872dd146101ff578063313ce5671461023c575b600080fd5b34801561015c57600080fd5b506101656105ac565b6040516101729190612bc1565b60405180910390f35b34801561018757600080fd5b506101a2600480360381019061019d9190612c86565b61063e565b6040516101af9190612ce1565b60405180910390f35b6101d260048036038101906101cd9190612e68565b610661565b005b3480156101e057600080fd5b506101e9610876565b6040516101f69190612eb7565b60405180910390f35b34801561020b57600080fd5b5061022660048036038101906102219190612ed2565b610880565b6040516102339190612ce1565b60405180910390f35b34801561024857600080fd5b5061025161090d565b60405161025e9190612f41565b60405180910390f35b34801561027357600080fd5b5061028e60048036038101906102899190612c86565b610916565b60405161029b9190612ce1565b60405180910390f35b3480156102b057600080fd5b506102cb60048036038101906102c69190612c86565b61094d565b005b3480156102d957600080fd5b506102f460048036038101906102ef9190612f5c565b610bd3565b6040516103049493929190613043565b60405180910390f35b610315610c5f565b005b610331600480360381019061032c9190612f5c565b610d66565b005b34801561033f57600080fd5b5061035a60048036038101906103559190613088565b61109b565b6040516103679190612eb7565b60405180910390f35b34801561037c57600080fd5b506103856110e3565b005b34801561039357600080fd5b506103ae60048036038101906103a99190612f5c565b61131d565b005b3480156103bc57600080fd5b506103d760048036038101906103d29190613088565b611348565b6040516103e49190612eb7565b60405180910390f35b610407600480360381019061040291906130b5565b6113df565b005b34801561041557600080fd5b50610430600480360381019061042b9190613088565b611b5f565b60405161043d9190612eb7565b60405180910390f35b34801561045257600080fd5b5061045b611ba8565b6040516104689190612bc1565b60405180910390f35b34801561047d57600080fd5b5061049860048036038101906104939190612c86565b611c3a565b6040516104a59190612ce1565b60405180910390f35b3480156104ba57600080fd5b506104d560048036038101906104d09190612c86565b611cb1565b6040516104e29190612ce1565b60405180910390f35b3480156104f757600080fd5b50610500611d3c565b60405161050d9190612eb7565b60405180910390f35b34801561052257600080fd5b5061053d60048036038101906105389190613088565b611d42565b60405161054a9190612eb7565b60405180910390f35b34801561055f57600080fd5b5061057a600480360381019061057591906130f5565b611d8b565b6040516105879190612eb7565b60405180910390f35b6105aa60048036038101906105a59190612f5c565b611e12565b005b6060600380546105bb90613164565b80601f01602080910402602001604051908101604052809291908181526020018280546105e790613164565b80156106345780601f1061060957610100808354040283529160200191610634565b820191906000526020600020905b81548152906001019060200180831161061757829003601f168201915b5050505050905090565b6000806106496121b0565b90506106568185856121b8565b600191505092915050565b600082116106a4576040517f08c379a000000000000000000000000000000000000000000000000000000000815260040161069b906131e2565b60405180910390fd5b6106ad33612383565b6106b8333084612481565b600660008154809291906106cb90613231565b91905055506040518060a00160405280826000600281106106ef576106ee61327a565b5b602002015181526020018260016002811061070d5761070c61327a565b5b602002015181526020018381526020013373ffffffffffffffffffffffffffffffffffffffff1681526020016001151581525060076000600654815260200190815260200160002060008201518160000155602082015181600101556040820151816002015560608201518160030160006101000a81548173ffffffffffffffffffffffffffffffffffffffff021916908373ffffffffffffffffffffffffffffffffffffffff16021790555060808201518160030160146101000a81548160ff02191690831515021790555090505081600960003373ffffffffffffffffffffffffffffffffffffffff1673ffffffffffffffffffffffffffffffffffffffff168152602001908152602001600020600082825461082c91906132a9565b925050819055507feff97c9761d42f9cc7a3da5c567433bff22b2ca11da24cc9bfef2123588b9f1d60065433848460405161086a94939291906132ff565b60405180910390a15050565b6000600254905090565b600061088b84612383565b3073ffffffffffffffffffffffffffffffffffffffff163373ffffffffffffffffffffffffffffffffffffffff16146108f9576040517f08c379a00000000000000000000000000000000000000000000000000000000081526004016108f090613390565b60405180910390fd5b6109048484846126f9565b90509392505050565b60006012905090565b6000806109216121b0565b90506109428185856109338589611d8b565b61093d91906132a9565b6121b8565b600191505092915050565b6000600d60003373ffffffffffffffffffffffffffffffffffffffff1673ffffffffffffffffffffffffffffffffffffffff16815260200190815260200160002060008473ffffffffffffffffffffffffffffffffffffffff1673ffffffffffffffffffffffffffffffffffffffff1681526020019081526020016000205411610a0c576040517f08c379a0000000000000000000000000000000000000000000000000000000008152600401610a0390613422565b60405180910390fd5b60058111158015610a1e575060018110155b610a5d576040517f08c379a0000000000000000000000000000000000000000000000000000000008152600401610a549061348e565b60405180910390fd5b6000600c60008473ffffffffffffffffffffffffffffffffffffffff1673ffffffffffffffffffffffffffffffffffffffff168152602001908152602001600020905081816000016000828254610ab491906132a9565b925050819055506001816001016000828254610ad091906132a9565b92505081905550600d60003373ffffffffffffffffffffffffffffffffffffffff1673ffffffffffffffffffffffffffffffffffffffff16815260200190815260200160002060008473ffffffffffffffffffffffffffffffffffffffff1673ffffffffffffffffffffffffffffffffffffffff1681526020019081526020016000206000815480929190610b64906134ae565b91905055508273ffffffffffffffffffffffffffffffffffffffff163373ffffffffffffffffffffffffffffffffffffffff167f5d7810bb85751be82d8965293f081a3833be22a320a0ad50eeae86b00251a5b384604051610bc69190612eb7565b60405180910390a3505050565b610bdb612b06565b600080600080600760008781526020019081526020016000209050604051806040016040528082600001548152602001826001015481525081600201548260030160009054906101000a900473ffffffffffffffffffffffffffffffffffffffff168360030160149054906101000a900460ff169450945094509450509193509193565b6000600860003373ffffffffffffffffffffffffffffffffffffffff1673ffffffffffffffffffffffffffffffffffffffff1681526020019081526020016000205490506000811415610ce7576040517f08c379a0000000000000000000000000000000000000000000000000000000008152600401610cde90613524565b60405180910390fd5b600860003373ffffffffffffffffffffffffffffffffffffffff1673ffffffffffffffffffffffffffffffffffffffff168152602001908152602001600020600090557f1298fc5ff44661f44eb6c9b97b499d8afd57fd00b4f3ac2cd518ccab8fea4a7b8133604051610d5b929190613544565b60405180910390a150565b806000600760008381526020019081526020016000206040518060a00160405290816000820154815260200160018201548152602001600282015481526020016003820160009054906101000a900473ffffffffffffffffffffffffffffffffffffffff1673ffffffffffffffffffffffffffffffffffffffff1673ffffffffffffffffffffffffffffffffffffffff1681526020016003820160149054906101000a900460ff1615151515815250509050600073ffffffffffffffffffffffffffffffffffffffff16816060015173ffffffffffffffffffffffffffffffffffffffff161415610e8c576040517f08c379a0000000000000000000000000000000000000000000000000000000008152600401610e83906135b9565b60405180910390fd5b8060800151610ed0576040517f08c379a0000000000000000000000000000000000000000000000000000000008152600401610ec790613625565b60405180910390fd5b6000600760008581526020019081526020016000206040518060a00160405290816000820154815260200160018201548152602001600282015481526020016003820160009054906101000a900473ffffffffffffffffffffffffffffffffffffffff1673ffffffffffffffffffffffffffffffffffffffff1673ffffffffffffffffffffffffffffffffffffffff1681526020016003820160149054906101000a900460ff16151515158152505090503373ffffffffffffffffffffffffffffffffffffffff16816060015173ffffffffffffffffffffffffffffffffffffffff161415610ff4576040517f08c379a0000000000000000000000000000000000000000000000000000000008152600401610feb90613691565b60405180910390fd5b83600860003373ffffffffffffffffffffffffffffffffffffffff1673ffffffffffffffffffffffffffffffffffffffff168152602001908152602001600020819055507f1f9d575367d33deb7e583b9f6847a1c0441e217e86e108be9972fa4ee714b73384338360400151604051806040016040528086600001518152602001866020015181525060405161108d94939291906132ff565b60405180910390a150505050565b60008060008373ffffffffffffffffffffffffffffffffffffffff1673ffffffffffffffffffffffffffffffffffffffff168152602001908152602001600020549050919050565b600560009054906101000a900473ffffffffffffffffffffffffffffffffffffffff1673ffffffffffffffffffffffffffffffffffffffff163373ffffffffffffffffffffffffffffffffffffffff1614611173576040517f08c379a000000000000000000000000000000000000000000000000000000000815260040161116a90613723565b60405180910390fd5b6000600190505b60065481116112e1576000600760008381526020019081526020016000206040518060a00160405290816000820154815260200160018201548152602001600282015481526020016003820160009054906101000a900473ffffffffffffffffffffffffffffffffffffffff1673ffffffffffffffffffffffffffffffffffffffff1673ffffffffffffffffffffffffffffffffffffffff1681526020016003820160149054906101000a900460ff16151515158152505090506000600b6000836060015173ffffffffffffffffffffffffffffffffffffffff1673ffffffffffffffffffffffffffffffffffffffff16815260200190815260200160002060003373ffffffffffffffffffffffffffffffffffffffff1673ffffffffffffffffffffffffffffffffffffffff16815260200190815260200160002060006101000a81548160ff0219169083151502179055505080806112d990613231565b91505061117a565b507f99c92f00834d7744e1b843afec497a9eded69aa7c5d1688e3ce8719670d2d59d6006546040516113139190612eb7565b60405180910390a1565b6113453361132961090d565b600a6113359190613876565b8361134091906138c1565b612728565b50565b600080600c60008473ffffffffffffffffffffffffffffffffffffffff1673ffffffffffffffffffffffffffffffffffffffff1681526020019081526020016000206040518060400160405290816000820154815260200160018201548152505090506000816020015114156113c25760009150506113da565b806020015181600001516113d6919061394a565b9150505b919050565b816000600760008381526020019081526020016000206040518060a00160405290816000820154815260200160018201548152602001600282015481526020016003820160009054906101000a900473ffffffffffffffffffffffffffffffffffffffff1673ffffffffffffffffffffffffffffffffffffffff1673ffffffffffffffffffffffffffffffffffffffff1681526020016003820160149054906101000a900460ff1615151515815250509050600073ffffffffffffffffffffffffffffffffffffffff16816060015173ffffffffffffffffffffffffffffffffffffffff161415611505576040517f08c379a00000000000000000000000000000000000000000000000000000000081526004016114fc906135b9565b60405180910390fd5b8060800151611549576040517f08c379a000000000000000000000000000000000000000000000000000000000815260040161154090613625565b60405180910390fd5b61155233612383565b60006007600086815260200190815260200160002090503373ffffffffffffffffffffffffffffffffffffffff168160030160009054906101000a900473ffffffffffffffffffffffffffffffffffffffff1673ffffffffffffffffffffffffffffffffffffffff16146115fb576040517f08c379a00000000000000000000000000000000000000000000000000000000081526004016115f2906139c7565b60405180910390fd5b84600860008673ffffffffffffffffffffffffffffffffffffffff1673ffffffffffffffffffffffffffffffffffffffff168152602001908152602001600020541461167c576040517f08c379a000000000000000000000000000000000000000000000000000000000815260040161167390613a59565b60405180910390fd5b60008160030160146101000a81548160ff0219169083151502179055507f021023dbf8343eff69d502d7f5d0424ae73de16df1e91b67983fff29991b149f858260030160009054906101000a900473ffffffffffffffffffffffffffffffffffffffff168684600201546040518060400160405280876000015481526020018760010154815250604051611714959493929190613a79565b60405180910390a18060020154600960008360030160009054906101000a900473ffffffffffffffffffffffffffffffffffffffff1673ffffffffffffffffffffffffffffffffffffffff1673ffffffffffffffffffffffffffffffffffffffff16815260200190815260200160002060008282546117939190613acc565b92505081905550600b60003373ffffffffffffffffffffffffffffffffffffffff1673ffffffffffffffffffffffffffffffffffffffff16815260200190815260200160002060008573ffffffffffffffffffffffffffffffffffffffff1673ffffffffffffffffffffffffffffffffffffffff16815260200190815260200160002060009054906101000a900460ff1661195757600060646019606461183a9190613acc565b836002015461184991906138c1565b611853919061394a565b9050600060646023606461186791906132a9565b846002015461187691906138c1565b611880919061394a565b905061188d308784612481565b6118bb8360030160009054906101000a900473ffffffffffffffffffffffffffffffffffffffff1682612728565b6000600b60003373ffffffffffffffffffffffffffffffffffffffff1673ffffffffffffffffffffffffffffffffffffffff16815260200190815260200160002060008873ffffffffffffffffffffffffffffffffffffffff1673ffffffffffffffffffffffffffffffffffffffff16815260200190815260200160002060006101000a81548160ff0219169083151502179055505050611967565b61196630858360020154612481565b5b600d60003373ffffffffffffffffffffffffffffffffffffffff1673ffffffffffffffffffffffffffffffffffffffff16815260200190815260200160002060008573ffffffffffffffffffffffffffffffffffffffff1673ffffffffffffffffffffffffffffffffffffffff16815260200190815260200160002060008154809291906119f490613231565b9190505550600d60008573ffffffffffffffffffffffffffffffffffffffff1673ffffffffffffffffffffffffffffffffffffffff16815260200190815260200160002060003373ffffffffffffffffffffffffffffffffffffffff1673ffffffffffffffffffffffffffffffffffffffff1681526020019081526020016000206000815480929190611a8690613231565b9190505550600860008573ffffffffffffffffffffffffffffffffffffffff1673ffffffffffffffffffffffffffffffffffffffff168152602001908152602001600020600090556000600a60003373ffffffffffffffffffffffffffffffffffffffff1673ffffffffffffffffffffffffffffffffffffffff168152602001908152602001600020819055506000600a60008673ffffffffffffffffffffffffffffffffffffffff1673ffffffffffffffffffffffffffffffffffffffff168152602001908152602001600020819055505050505050565b6000600960008373ffffffffffffffffffffffffffffffffffffffff1673ffffffffffffffffffffffffffffffffffffffff168152602001908152602001600020549050919050565b606060048054611bb790613164565b80601f0160208091040260200160405190810160405280929190818152602001828054611be390613164565b8015611c305780601f10611c0557610100808354040283529160200191611c30565b820191906000526020600020905b815481529060010190602001808311611c1357829003601f168201915b5050505050905090565b600080611c456121b0565b90506000611c538286611d8b565b905083811015611c98576040517f08c379a0000000000000000000000000000000000000000000000000000000008152600401611c8f90613b72565b60405180910390fd5b611ca582868684036121b8565b60019250505092915050565b6000611cbc33612383565b3073ffffffffffffffffffffffffffffffffffffffff163373ffffffffffffffffffffffffffffffffffffffff1614611d2a576040517f08c379a0000000000000000000000000000000000000000000000000000000008152600401611d2190613bde565b60405180910390fd5b611d34838361287f565b905092915050565b60065481565b6000600860008373ffffffffffffffffffffffffffffffffffffffff1673ffffffffffffffffffffffffffffffffffffffff168152602001908152602001600020549050919050565b6000600160008473ffffffffffffffffffffffffffffffffffffffff1673ffffffffffffffffffffffffffffffffffffffff16815260200190815260200160002060008373ffffffffffffffffffffffffffffffffffffffff1673ffffffffffffffffffffffffffffffffffffffff16815260200190815260200160002054905092915050565b806000600760008381526020019081526020016000206040518060a00160405290816000820154815260200160018201548152602001600282015481526020016003820160009054906101000a900473ffffffffffffffffffffffffffffffffffffffff1673ffffffffffffffffffffffffffffffffffffffff1673ffffffffffffffffffffffffffffffffffffffff1681526020016003820160149054906101000a900460ff1615151515815250509050600073ffffffffffffffffffffffffffffffffffffffff16816060015173ffffffffffffffffffffffffffffffffffffffff161415611f38576040517f08c379a0000000000000000000000000000000000000000000000000000000008152600401611f2f906135b9565b60405180910390fd5b8060800151611f7c576040517f08c379a0000000000000000000000000000000000000000000000000000000008152600401611f7390613625565b60405180910390fd5b6000600760008581526020019081526020016000206040518060a00160405290816000820154815260200160018201548152602001600282015481526020016003820160009054906101000a900473ffffffffffffffffffffffffffffffffffffffff1673ffffffffffffffffffffffffffffffffffffffff1673ffffffffffffffffffffffffffffffffffffffff1681526020016003820160149054906101000a900460ff16151515158152505090503373ffffffffffffffffffffffffffffffffffffffff16816060015173ffffffffffffffffffffffffffffffffffffffff161461209f576040517f08c379a0000000000000000000000000000000000000000000000000000000008152600401612096906139c7565b60405180910390fd5b60076000858152602001908152602001600020600080820160009055600182016000905560028201600090556003820160006101000a81549073ffffffffffffffffffffffffffffffffffffffff02191690556003820160146101000a81549060ff021916905550508060400151600960003373ffffffffffffffffffffffffffffffffffffffff1673ffffffffffffffffffffffffffffffffffffffff168152602001908152602001600020600082825461215b9190613acc565b925050819055507f9a4dfa8787b349e9b45b60504f991c5c9f9cda8dadabdc8e4a3f4cb8608220a38433604051612193929190613544565b60405180910390a16121aa30338360400151612481565b50505050565b600033905090565b600073ffffffffffffffffffffffffffffffffffffffff168373ffffffffffffffffffffffffffffffffffffffff161415612228576040517f08c379a000000000000000000000000000000000000000000000000000000000815260040161221f90613c70565b60405180910390fd5b600073ffffffffffffffffffffffffffffffffffffffff168273ffffffffffffffffffffffffffffffffffffffff161415612298576040517f08c379a000000000000000000000000000000000000000000000000000000000815260040161228f90613d02565b60405180910390fd5b80600160008573ffffffffffffffffffffffffffffffffffffffff1673ffffffffffffffffffffffffffffffffffffffff16815260200190815260200160002060008473ffffffffffffffffffffffffffffffffffffffff1673ffffffffffffffffffffffffffffffffffffffff168152602001908152602001600020819055508173ffffffffffffffffffffffffffffffffffffffff168373ffffffffffffffffffffffffffffffffffffffff167f8c5be1e5ebec7d5bd14f71427d1e84f3dd0314c0f7b2291e5b200ac8c7c3b925836040516123769190612eb7565b60405180910390a3505050565b6000600a60008373ffffffffffffffffffffffffffffffffffffffff1673ffffffffffffffffffffffffffffffffffffffff16815260200190815260200160002060008154809291906123d590613231565b9190505590506001600a60008473ffffffffffffffffffffffffffffffffffffffff1673ffffffffffffffffffffffffffffffffffffffff16815260200190815260200160002054111561247d57600061242e8361109b565b6064600e60018561243f9190613acc565b815481106124505761244f61327a565b5b9060005260206000200154612465919061394a565b61246f91906138c1565b905061247b83826128a2565b505b5050565b600073ffffffffffffffffffffffffffffffffffffffff168373ffffffffffffffffffffffffffffffffffffffff1614156124f1576040517f08c379a00000000000000000000000000000000000000000000000000000000081526004016124e890613d94565b60405180910390fd5b600073ffffffffffffffffffffffffffffffffffffffff168273ffffffffffffffffffffffffffffffffffffffff161415612561576040517f08c379a000000000000000000000000000000000000000000000000000000000815260040161255890613e26565b60405180910390fd5b61256c838383612a70565b60008060008573ffffffffffffffffffffffffffffffffffffffff1673ffffffffffffffffffffffffffffffffffffffff168152602001908152602001600020549050818110156125f2576040517f08c379a00000000000000000000000000000000000000000000000000000000081526004016125e990613eb8565b60405180910390fd5b8181036000808673ffffffffffffffffffffffffffffffffffffffff1673ffffffffffffffffffffffffffffffffffffffff16815260200190815260200160002081905550816000808573ffffffffffffffffffffffffffffffffffffffff1673ffffffffffffffffffffffffffffffffffffffff168152602001908152602001600020600082825401925050819055508273ffffffffffffffffffffffffffffffffffffffff168473ffffffffffffffffffffffffffffffffffffffff167fddf252ad1be2c89b69c2b068fc378daa952ba7f163c4a11628f55a4df523b3ef846040516126e09190612eb7565b60405180910390a36126f3848484612a75565b50505050565b6000806127046121b0565b9050612711858285612a7a565b61271c858585612481565b60019150509392505050565b600073ffffffffffffffffffffffffffffffffffffffff168273ffffffffffffffffffffffffffffffffffffffff161415612798576040517f08c379a000000000000000000000000000000000000000000000000000000000815260040161278f90613f24565b60405180910390fd5b6127a460008383612a70565b80600260008282546127b691906132a9565b92505081905550806000808473ffffffffffffffffffffffffffffffffffffffff1673ffffffffffffffffffffffffffffffffffffffff168152602001908152602001600020600082825401925050819055508173ffffffffffffffffffffffffffffffffffffffff16600073ffffffffffffffffffffffffffffffffffffffff167fddf252ad1be2c89b69c2b068fc378daa952ba7f163c4a11628f55a4df523b3ef836040516128679190612eb7565b60405180910390a361287b60008383612a75565b5050565b60008061288a6121b0565b9050612897818585612481565b600191505092915050565b600073ffffffffffffffffffffffffffffffffffffffff168273ffffffffffffffffffffffffffffffffffffffff161415612912576040517f08c379a000000000000000000000000000000000000000000000000000000000815260040161290990613fb6565b60405180910390fd5b61291e82600083612a70565b60008060008473ffffffffffffffffffffffffffffffffffffffff1673ffffffffffffffffffffffffffffffffffffffff168152602001908152602001600020549050818110156129a4576040517f08c379a000000000000000000000000000000000000000000000000000000000815260040161299b90614048565b60405180910390fd5b8181036000808573ffffffffffffffffffffffffffffffffffffffff1673ffffffffffffffffffffffffffffffffffffffff1681526020019081526020016000208190555081600260008282540392505081905550600073ffffffffffffffffffffffffffffffffffffffff168373ffffffffffffffffffffffffffffffffffffffff167fddf252ad1be2c89b69c2b068fc378daa952ba7f163c4a11628f55a4df523b3ef84604051612a579190612eb7565b60405180910390a3612a6b83600084612a75565b505050565b505050565b505050565b6000612a868484611d8b565b90507fffffffffffffffffffffffffffffffffffffffffffffffffffffffffffffffff8114612b005781811015612af2576040517f08c379a0000000000000000000000000000000000000000000000000000000008152600401612ae9906140b4565b60405180910390fd5b612aff84848484036121b8565b5b50505050565b6040518060400160405280600290602082028036833780820191505090505090565b600081519050919050565b600082825260208201905092915050565b60005b83811015612b62578082015181840152602081019050612b47565b83811115612b71576000848401525b50505050565b6000601f19601f8301169050919050565b6000612b9382612b28565b612b9d8185612b33565b9350612bad818560208601612b44565b612bb681612b77565b840191505092915050565b60006020820190508181036000830152612bdb8184612b88565b905092915050565b6000604051905090565b600080fd5b600073ffffffffffffffffffffffffffffffffffffffff82169050919050565b6000612c1d82612bf2565b9050919050565b612c2d81612c12565b8114612c3857600080fd5b50565b600081359050612c4a81612c24565b92915050565b6000819050919050565b612c6381612c50565b8114612c6e57600080fd5b50565b600081359050612c8081612c5a565b92915050565b60008060408385031215612c9d57612c9c612bed565b5b6000612cab85828601612c3b565b9250506020612cbc85828601612c71565b9150509250929050565b60008115159050919050565b612cdb81612cc6565b82525050565b6000602082019050612cf66000830184612cd2565b92915050565b600080fd5b7f4e487b7100000000000000000000000000000000000000000000000000000000600052604160045260246000fd5b612d3982612b77565b810181811067ffffffffffffffff82111715612d5857612d57612d01565b5b80604052505050565b6000612d6b612be3565b9050612d778282612d30565b919050565b600067ffffffffffffffff821115612d9757612d96612d01565b5b602082029050919050565b600080fd5b6000819050919050565b612dba81612da7565b8114612dc557600080fd5b50565b600081359050612dd781612db1565b92915050565b6000612df0612deb84612d7c565b612d61565b90508060208402830185811115612e0a57612e09612da2565b5b835b81811015612e335780612e1f8882612dc8565b845260208401935050602081019050612e0c565b5050509392505050565b600082601f830112612e5257612e51612cfc565b5b6002612e5f848285612ddd565b91505092915050565b60008060608385031215612e7f57612e7e612bed565b5b6000612e8d85828601612c71565b9250506020612e9e85828601612e3d565b9150509250929050565b612eb181612c50565b82525050565b6000602082019050612ecc6000830184612ea8565b92915050565b600080600060608486031215612eeb57612eea612bed565b5b6000612ef986828701612c3b565b9350506020612f0a86828701612c3b565b9250506040612f1b86828701612c71565b9150509250925092565b600060ff82169050919050565b612f3b81612f25565b82525050565b6000602082019050612f566000830184612f32565b92915050565b600060208284031215612f7257612f71612bed565b5b6000612f8084828501612c71565b91505092915050565b600060029050919050565b600081905092915050565b6000819050919050565b612fb281612da7565b82525050565b6000612fc48383612fa9565b60208301905092915050565b6000602082019050919050565b612fe681612f89565b612ff08184612f94565b9250612ffb82612f9f565b8060005b8381101561302c5781516130138782612fb8565b965061301e83612fd0565b925050600181019050612fff565b505050505050565b61303d81612c12565b82525050565b600060a0820190506130586000830187612fdd565b6130656040830186612ea8565b6130726060830185613034565b61307f6080830184612cd2565b95945050505050565b60006020828403121561309e5761309d612bed565b5b60006130ac84828501612c3b565b91505092915050565b600080604083850312156130cc576130cb612bed565b5b60006130da85828601612c71565b92505060206130eb85828601612c3b565b9150509250929050565b6000806040838503121561310c5761310b612bed565b5b600061311a85828601612c3b565b925050602061312b85828601612c3b565b9150509250929050565b7f4e487b7100000000000000000000000000000000000000000000000000000000600052602260045260246000fd5b6000600282049050600182168061317c57607f821691505b602082108114156131905761318f613135565b5b50919050565b7f596f75206d757374206f66666572206174206c65617374203120746f6b656e00600082015250565b60006131cc601f83612b33565b91506131d782613196565b602082019050919050565b600060208201905081810360008301526131fb816131bf565b9050919050565b7f4e487b7100000000000000000000000000000000000000000000000000000000600052601160045260246000fd5b600061323c82612c50565b91507fffffffffffffffffffffffffffffffffffffffffffffffffffffffffffffffff82141561326f5761326e613202565b5b600182019050919050565b7f4e487b7100000000000000000000000000000000000000000000000000000000600052603260045260246000fd5b60006132b482612c50565b91506132bf83612c50565b9250827fffffffffffffffffffffffffffffffffffffffffffffffffffffffffffffffff038211156132f4576132f3613202565b5b828201905092915050565b600060a0820190506133146000830187612ea8565b6133216020830186613034565b61332e6040830185612ea8565b61333b6060830184612fdd565b95945050505050565b7f496e646972656374207472616e7366657273206e6f7420616c6c6f7765640000600082015250565b600061337a601e83612b33565b915061338582613344565b602082019050919050565b600060208201905081810360008301526133a98161336d565b9050919050565b7f596f7520646f206e6f74206861766520696e746572616374696f6e206372656460008201527f697420666f722074686973207573657200000000000000000000000000000000602082015250565b600061340c603083612b33565b9150613417826133b0565b604082019050919050565b6000602082019050818103600083015261343b816133ff565b9050919050565b7f526174696e67206d757374206265206265747765656e203120616e6420350000600082015250565b6000613478601e83612b33565b915061348382613442565b602082019050919050565b600060208201905081810360008301526134a78161346b565b9050919050565b60006134b982612c50565b915060008214156134cd576134cc613202565b5b600182039050919050565b7f596f7520617265206e6f7420612070726f706f73657200000000000000000000600082015250565b600061350e601683612b33565b9150613519826134d8565b602082019050919050565b6000602082019050818103600083015261353d81613501565b9050919050565b60006040820190506135596000830185612ea8565b6135666020830184613034565b9392505050565b7f4f6666657220646f6573206e6f74206578697374000000000000000000000000600082015250565b60006135a3601483612b33565b91506135ae8261356d565b602082019050919050565b600060208201905081810360008301526135d281613596565b9050919050565b7f4f66666572206973206e6f742061637469766500000000000000000000000000600082015250565b600061360f601383612b33565b915061361a826135d9565b602082019050919050565b6000602082019050818103600083015261363e81613602565b9050919050565b7f596f752063616e2774207265717565737420796f7572206f776e206f66666572600082015250565b600061367b602083612b33565b915061368682613645565b602082019050919050565b600060208201905081810360008301526136aa8161366e565b9050919050565b7f4f6e6c7920746865206f776e65722063616e2063616c6c20746869732066756e60008201527f6374696f6e000000000000000000000000000000000000000000000000000000602082015250565b600061370d602583612b33565b9150613718826136b1565b604082019050919050565b6000602082019050818103600083015261373c81613700565b9050919050565b60008160011c9050919050565b6000808291508390505b600185111561379a5780860481111561377657613775613202565b5b60018516156137855780820291505b808102905061379385613743565b945061375a565b94509492505050565b6000826137b3576001905061386f565b816137c1576000905061386f565b81600181146137d757600281146137e157613810565b600191505061386f565b60ff8411156137f3576137f2613202565b5b8360020a91508482111561380a57613809613202565b5b5061386f565b5060208310610133831016604e8410600b84101617156138455782820a9050838111156138405761383f613202565b5b61386f565b6138528484846001613750565b9250905081840481111561386957613868613202565b5b81810290505b9392505050565b600061388182612c50565b915061388c83612f25565b92506138b97fffffffffffffffffffffffffffffffffffffffffffffffffffffffffffffffff84846137a3565b905092915050565b60006138cc82612c50565b91506138d783612c50565b9250817fffffffffffffffffffffffffffffffffffffffffffffffffffffffffffffffff04831182151516156139105761390f613202565b5b828202905092915050565b7f4e487b7100000000000000000000000000000000000000000000000000000000600052601260045260246000fd5b600061395582612c50565b915061396083612c50565b9250826139705761396f61391b565b5b828204905092915050565b7f596f7520617265206e6f7420746865206f666665726572000000000000000000600082015250565b60006139b1601783612b33565b91506139bc8261397b565b602082019050919050565b600060208201905081810360008301526139e0816139a4565b9050919050565b7f5468652070726f76696465642061646472657373206973206e6f74206120707260008201527f6f706f7365720000000000000000000000000000000000000000000000000000602082015250565b6000613a43602683612b33565b9150613a4e826139e7565b604082019050919050565b60006020820190508181036000830152613a7281613a36565b9050919050565b600060c082019050613a8e6000830188612ea8565b613a9b6020830187613034565b613aa86040830186613034565b613ab56060830185612ea8565b613ac26080830184612fdd565b9695505050505050565b6000613ad782612c50565b9150613ae283612c50565b925082821015613af557613af4613202565b5b828203905092915050565b7f45524332303a2064656372656173656420616c6c6f77616e63652062656c6f7760008201527f207a65726f000000000000000000000000000000000000000000000000000000602082015250565b6000613b5c602583612b33565b9150613b6782613b00565b604082019050919050565b60006020820190508181036000830152613b8b81613b4f565b9050919050565b7f446972656374207472616e7366657273206e6f7420616c6c6f77656400000000600082015250565b6000613bc8601c83612b33565b9150613bd382613b92565b602082019050919050565b60006020820190508181036000830152613bf781613bbb565b9050919050565b7f45524332303a20617070726f76652066726f6d20746865207a65726f2061646460008201527f7265737300000000000000000000000000000000000000000000000000000000602082015250565b6000613c5a602483612b33565b9150613c6582613bfe565b604082019050919050565b60006020820190508181036000830152613c8981613c4d565b9050919050565b7f45524332303a20617070726f766520746f20746865207a65726f20616464726560008201527f7373000000000000000000000000000000000000000000000000000000000000602082015250565b6000613cec602283612b33565b9150613cf782613c90565b604082019050919050565b60006020820190508181036000830152613d1b81613cdf565b9050919050565b7f45524332303a207472616e736665722066726f6d20746865207a65726f20616460008201527f6472657373000000000000000000000000000000000000000000000000000000602082015250565b6000613d7e602583612b33565b9150613d8982613d22565b604082019050919050565b60006020820190508181036000830152613dad81613d71565b9050919050565b7f45524332303a207472616e7366657220746f20746865207a65726f206164647260008201527f6573730000000000000000000000000000000000000000000000000000000000602082015250565b6000613e10602383612b33565b9150613e1b82613db4565b604082019050919050565b60006020820190508181036000830152613e3f81613e03565b9050919050565b7f45524332303a207472616e7366657220616d6f756e742065786365656473206260008201527f616c616e63650000000000000000000000000000000000000000000000000000602082015250565b6000613ea2602683612b33565b9150613ead82613e46565b604082019050919050565b60006020820190508181036000830152613ed181613e95565b9050919050565b7f45524332303a206d696e7420746f20746865207a65726f206164647265737300600082015250565b6000613f0e601f83612b33565b9150613f1982613ed8565b602082019050919050565b60006020820190508181036000830152613f3d81613f01565b9050919050565b7f45524332303a206275726e2066726f6d20746865207a65726f2061646472657360008201527f7300000000000000000000000000000000000000000000000000000000000000602082015250565b6000613fa0602183612b33565b9150613fab82613f44565b604082019050919050565b60006020820190508181036000830152613fcf81613f93565b9050919050565b7f45524332303a206275726e20616d6f756e7420657863656564732062616c616e60008201527f6365000000000000000000000000000000000000000000000000000000000000602082015250565b6000614032602283612b33565b915061403d82613fd6565b604082019050919050565b6000602082019050818103600083015261406181614025565b9050919050565b7f45524332303a20696e73756666696369656e7420616c6c6f77616e6365000000600082015250565b600061409e601d83612b33565b91506140a982614068565b602082019050919050565b600060208201905081810360008301526140cd81614091565b905091905056fea2646970667358221220f7457e77efff93c59bc1485722ea11ba3fb7e0cf8e607f52945e863a1786a20764736f6c63430008090033",
    "linkReferences": {},
    "deployedLinkReferences": {}
}